:040000000DEF00F010
:04000800F7EF3AF0E4
:10001800FF00E2EF45F040C5D9F441C5DAF4DEC48B
:10002800F6F4DDC4F7F4F86A0800F550250AD8A4F8
:1000380020EF00F022EF00F023EF09F040C5D9F4DB
:1000480041C5DAF4DE2A000EDD220601596B000EE6
:10005800586F58C6FEF5586859680501936B70EFDC
:1000680000F0FE8140C5D9F441C5DAF4DE2A000E5D
:10007800DD2270EF00F0FE8336EF00F0FE8536EFEC
:1000880000F0FE8736EF00F0FE8936EF00F0010E33
:10009800936F70EF00F040C5D9F441C5DAF4DEC4BF
:1000A800F6F4DDC4F7F4F86A0800F550200AD8B46D
:1000B80045EF00F0030AD8B448EF00F0080AD8B4B6
:1000C80042EF00F0060AD8B435EF00F01D0AD8B4A4
:1000D8003FEF00F04BEF00F09351D8B476EF00F00B
:1000E80078EF00F04FEF00F0FEA17DEF00F07FEF1A
:1000F80000F080EF00F0FE9340C507F541C508F514
:1001080042C509F543C50AF594EC3AF007C558F617
:1001180008C559F6060159BF96EF00F094EF00F0B4
:100128009DEF00F00501FE810601586D591FD8B0FA
:10013800592B40C5D9F441C5DAF4DEC4F6F4DDC460
:10014800F7F4F86A0800F5502E0AD8A4AEEF00F0CC
:10015800B0EF00F0C5EF00F040C5D9F441C5DAF4BE
:10016800DE2A000EDD2240C507F541C508F542C567
:1001780009F543C50AF594EC3AF007C558F508C5E2
:1001880059F540C5D9F441C5DAF4DEC4F6F4DDC446
:10019800F7F4F86A0800F550630AD8A4D6EF00F01F
:1001A800D8EF00F000EF01F040C5D9F441C5DAF40A
:1001B800DE2A000EDD2242C5D9F443C5DAF4DFC4D5
:1001C80044F5020EDE26DFC445F5000EDD2244C5E7
:1001D800D9F445C5DAF4DF500501946F3EC510F532
:1001E8003FC511F594C512F5CBEC37F010C53EF5B7
:1001F80011C53FF53FEF09F040C5D9F441C5DAF420
:10020800DEC49DF5DDC49EF59DC5F6F49EC5F7F4E4
:10021800F86A0800F5C494F545EF01F09D4B9E2B54
:100228009DC5F6F49EC5F7F4F86A0800F550680A0B
:10023800D8A421EF01F023EF01F079EF01F0480E87
:10024800946F9D4B9E2B79EF01F09D4B9E2B9DC586
:10025800F6F49EC5F7F4F86A0800F5506C0AD8A4BD
:1002680038EF01F03AEF01F079EF01F04C0E946F9E
:1002780025EF01F0690E946F79EF01F0946B79EF37
:1002880001F005019451580AD8B43EEF01F03C0A38
:10029800D8B43EEF01F00C0AD8B412EF01F0010A0D
:1002A800D8B43EEF01F0030AD8B425EF01F0060AEE
:1002B800D8B429EF01F0020AD8B43EEF01F0010AE0
:1002C800D8B43EEF01F01B0AD8B425EF01F0010ABB
:1002D800D8B43EEF01F00D0AD8B43EEF01F0020A9F
:1002E800D8B425EF01F042EF01F09DC5F6F49EC5A4
:1002F800F7F4F86A0800F550640AD8B486EF01F0FC
:1003080088EF01F0D3EF02F09DC5F6F49EC5F7F42F
:10031800F86A0800F550690AD8A495EF01F097EF3C
:1003280001F020EF03F0D3EF02F042C5D9F443C542
:10033800DAF4DFC444F5020EDE26DFC445F5000E0C
:10034800DD2244C5D9F445C5DAF4DEC495F5DDC42B
:1003580096F5000E96BFFF0E976F986F996F9A6F7C
:100368009B6F9C6FF6EF02F042C5D9F443C5DAF4EF
:10037800DFC444F5020EDE26DFC445F5000EDD229B
:1003880044C5D9F445C5DAF4DEC495F5DDC496F55F
:10039800000E96BFFF0E976F986F996F9A6F9B6FBD
:1003A8009C6FF6EF02F042C5D9F443C5DAF4DFC416
:1003B80044F5020EDE26DFC445F5000EDD2244C5F5
:1003C800D9F445C5DAF4DF50956F000E95BFFF0EDE
:1003D800966F976F986F996F9A6F9B6F9C6FF6EFF8
:1003E80002F042C5D9F443C5DAF4DFC444F5040E7B
:1003F800DE26DFC445F5000EDD2244C5D9F445C527
:10040800DAF4DEC446F5DEC447F5DEC448F5DEC4DA
:1004180049F546C54AF547C54BF548C54CF549C5A4
:100428004DF54E6A4DBE4E684EC54FF54EC550F55A
:100438004EC551F54AC595F54BC596F54CC597F58A
:100448004DC598F54EC599F54FC59AF550C59BF51C
:1004580051C59CF5F6EF02F042C5D9F443C5DAF46C
:10046800DFC444F5080EDE26DFC445F5000EDD22A4
:1004780044C5D9F445C5DAF4DEC446F5DEC447F50B
:10048800DEC448F5DEC449F5DEC44AF5DEC44BF5E2
:10049800DEC44CF5DEC44DF546C595F547C596F561
:1004A80048C597F549C598F54AC599F54BC59AF5D4
:1004B8004CC59BF54DC59CF5F6EF02F042C5D9F445
:1004C80043C5DAF4DFC444F5020EDE26DFC445F581
:1004D800000EDD2244C5D9F445C5DAF4DEC495F52D
:1004E800DDC496F5000E96BFFF0E976F986F996F53
:1004F8009A6F9B6F9C6FF6EF02F042C5D9F443C523
:10050800DAF4DFC444F5080EDE26DFC445F5000E34
:10051800DD2244C5D9F445C5DAF4DEC446F5DEC4A7
:1005280047F5DEC448F5DEC449F5DEC44AF5DEC445
:100538004BF5DEC44CF5DEC44DF546C595F547C50B
:1005480096F548C597F549C598F54AC599F54BC537
:100558009AF54CC59BF54DC59CF5F6EF02F042C5E2
:10056800D9F443C5DAF4DFC444F5020EDE26DFC44D
:1005780045F5000EDD2244C5D9F445C5DAF4DEC4DC
:1005880046F5DDC447F546C595F547C596F5976B1D
:10059800986B996B9A6B9B6B9C6BF6EF02F094517E
:1005A800480AD8B4D7EF01F0040AD8B430EF02F003
:1005B800240AD8B4B8EF01F0010AD8B499EF01F0D1
:1005C800030AD8B481EF02F0060AD8B4F5EF01F0B7
:1005D800180AD8B462EF02F00E0AD8B4B3EF02F0EA
:1005E800F6EF02F0010E9D25446E000E9E21456E29
:1005F80040C5D9F441C5DAF444C5DEF445C5DDF497
:100608003EC521F53FC522F595C523F596C524F5C8
:1006180097C525F598C526F599C527F59AC528F5EE
:100628009BC529F59CC52AF5F0EC26F021C53EF5B9
:1006380022C53FF53FEF09F09DC5F6F49EC5F7F4D6
:10064800F86A0800F550780AD8B42DEF03F02FEFB8
:1006580003F084EF04F09DC5F6F49EC5F7F4F86A3C
:100668000800F550580AD8B43CEF03F03EEF03F009
:1006780084EF04F09DC5F6F49EC5F7F4F86A080007
:10068800F5506F0AD8B44BEF03F04DEF03F084EF49
:1006980004F09DC5F6F49EC5F7F4F86A0800F55015
:1006A800750AD8A45AEF03F05CEF03F02CEF05F0BD
:1006B80084EF04F042C5D9F443C5DAF4DFC444F545
:1006C800020EDE26DFC445F5000EDD2244C5D9F44E
:1006D80045C5DAF4DEC446F5DDC447F546C595F5EB
:1006E80047C596F5976B986B996B9A6B9B6B9C6B50
:1006F800A7EF04F042C5D9F443C5DAF4DFC444F5E2
:10070800020EDE26DFC445F5000EDD2244C5D9F40D
:1007180045C5DAF4DEC446F5DDC447F546C595F5AA
:1007280047C596F5976B986B996B9A6B9B6B9C6B0F
:10073800A7EF04F042C5D9F443C5DAF4DFC444F5A1
:10074800020EDE26DFC445F5000EDD2244C5D9F4CD
:1007580045C5DAF4DF50466E4650956F966B976B39
:10076800986B996B9A6B9B6B9C6BA7EF04F042C5D7
:10077800D9F443C5DAF4DFC444F5040EDE26DFC439
:1007880045F5000EDD2244C5D9F445C5DAF4DEC4CA
:1007980046F5DEC447F5DEC448F5DEC449F54650E3
:1007A800956F4750966F4850976F4950986F996B5F
:1007B8009A6B9B6B9C6BA7EF04F042C5D9F443C5B9
:1007C800DAF4DFC444F5080EDE26DFC445F5000E72
:1007D800DD2244C5D9F445C5DAF4DEC446F5DEC4E5
:1007E80047F5DEC448F5DEC449F5DEC44AF5DEC483
:1007F8004BF5DEC44CF5DEC44DF546C595F547C549
:1008080096F548C597F549C598F54AC599F54BC574
:100818009AF54CC59BF54DC59CF5A7EF04F042C56C
:10082800D9F443C5DAF4DFC444F5020EDE26DFC48A
:1008380045F5000EDD2244C5D9F445C5DAF4DEC419
:1008480095F5DDC496F5000E96BFFF0E976F986F6D
:10085800996F9A6F9B6F9C6FA7EF04F042C5D9F40C
:1008680043C5DAF4DFC444F5080EDE26DFC445F5D7
:10087800000EDD2244C5D9F445C5DAF4DEC446F5D8
:10088800DEC447F5DEC448F5DEC449F5DEC44AF5E2
:10089800DEC44BF5DEC44CF5DEC44DF546C595F512
:1008A80047C596F548C597F549C598F54AC599F5D8
:1008B8004BC59AF54CC59BF54DC59CF5A7EF04F0C3
:1008C80042C5D9F443C5DAF4DFC444F5020EDE2686
:1008D800DFC445F5000EDD2244C5D9F445C5DAF478
:1008E800DEC446F5DDC447F546C595F547C596F51A
:1008F800976B986B996B9A6B9B6B9C6BA7EF04F04B
:100908009451480AD8B49EEF03F0040AD8B4E1EF32
:1009180003F0240AD8B47EEF03F0010AD8B45EEFDE
:1009280003F0030AD8B432EF04F0060AD8B4BBEFD8
:1009380003F0180AD8B413EF04F00E0AD8B464EF21
:1009480004F0A7EF04F0010E9D25446E000E9E21D1
:10095800456E40C5D9F441C5DAF444C5DEF445C551
:10096800DDF413EF05F03EC520F53FC521F595C52B
:1009780022F596C523F597C524F598C525F599C59B
:1009880026F59AC527F59BC528F59CC529F57CEC65
:100998002DF020C53EF521C53FF53FEF09F03EC5D6
:1009A80020F53FC521F595C522F596C523F597C5D0
:1009B80024F598C525F599C526F59AC527F59BC54B
:1009C80028F59CC529F593EC2CF020C53EF521C5EA
:1009D8003FF53FEF09F03EC520F53FC521F595C528
:1009E80022F596C523F597C524F598C525F599C52B
:1009F80026F59AC527F59BC528F59CC529F59DC5FB
:100A0800F6F49EC5F7F4F86A0800F5C42AF566EC12
:100A180029F020C53EF521C53FF53FEF09F09DC5FA
:100A2800F6F49EC5F7F4F86A0800F550580AD8B4E9
:100A3800EFEF04F0370AD8B4B7EF04F01A0AD8B4C5
:100A4800D3EF04F00D0AD8B4EFEF04F02CEF05F063
:100A58009DC5F6F49EC5F7F4F86A0800F5506E0ACD
:100A6800D8A439EF05F03BEF05F0A0EF06F06AEFE8
:100A780006F042C5D9F443C5DAF4DFC444F5020EE2
:100A8800DE26DFC445F5000EDD2244C5D9F445C590
:100A9800DAF4DEC446F5DDC447F546C5D9F447C5E2
:100AA800DAF456C6DEF457C6DDF48DEF06F042C51B
:100AB800D9F443C5DAF4DFC444F5020EDE26DFC4F8
:100AC80045F5000EDD2244C5D9F445C5DAF4DEC487
:100AD80046F5DDC447F546C5D9F447C5DAF456C628
:100AE800DEF457C6DDF48DEF06F042C5D9F443C5F0
:100AF800DAF4DFC444F5020EDE26DFC445F5000E45
:100B0800DD2244C5D9F445C5DAF4DEC446F5DDC4B2
:100B180047F546C5D9F447C5DAF456C6DFF48DEF74
:100B280006F056C644F557C645F5000E45BEFF0EFD
:100B3800466E476E42C5D9F443C5DAF4DFC448F5BA
:100B4800020EDE26DFC449F5000EDD2248C5D9F4C1
:100B580049C5DAF4DEC44AF5DDC44BF54AC5D9F413
:100B68004BC5DAF444C5DEF445C5DEF446C5DEF40B
:100B780047C5DEF48DEF06F056C644F557C645F571
:100B8800000E45BEFF0E466E476E486E496E4A6EB1
:100B98004B6E42C5D9F443C5DAF4DFC44CF5020EF6
:100BA800DE26DFC44DF5000EDD224CC5D9F44DC557
:100BB800DAF4DEC44EF5DDC44FF54EC5D9F44FC5A1
:100BC800DAF444C5DEF445C5DEF446C5DEF447C5AF
:100BD800DEF448C5DEF449C5DEF44AC5DEF44BC58B
:100BE800DEF48DEF06F042C5D9F443C5DAF4DFC46C
:100BF80044F5020EDE26DFC445F5000EDD2244C5AD
:100C0800D9F445C5DAF4DEC446F5DDC447F546C572
:100C1800D9F447C5DAF456C6DEF457C6DDF48DEFCD
:100C280006F056C644F557C645F5000E45BEFF0EFC
:100C3800466E476E486E496E4A6E4B6E42C5D9F491
:100C480043C5DAF4DFC44CF5020EDE26DFC44DF5E9
:100C5800000EDD224CC5D9F44DC5DAF4DEC44EF5DC
:100C6800DDC44FF54EC5D9F44FC5DAF444C5DEF4FA
:100C780045C5DEF446C5DEF447C5DEF448C5DEF4F6
:100C880049C5DEF44AC5DEF44BC5DEF48DEF06F047
:100C980042C5D9F443C5DAF4DFC444F5020EDE26B2
:100CA800DFC445F5000EDD2244C5D9F445C5DAF4A4
:100CB800DEC446F5DDC447F546C5D9F447C5DAF4C0
:100CC80056C6DEF457C6DDF48DEF06F09451480A97
:100CD800D8B479EF05F0040AD8B4C0EF05F0240AB7
:100CE800D8B45BEF05F0010AD8B43DEF05F0030A6C
:100CF800D8B415EF06F0060AD8B495EF05F0180A2F
:100D0800D8B4F7EF05F00E0AD8B44CEF06F08DEF23
:100D180006F0010E9D25446E000E9E21456E40C5CD
:100D2800D9F441C5DAF444C5DEF445C5DDF43F6ABB
:100D3800000E3E6E3FEF09F040C5D9F441C5DAF424
:100D4800DEC4F6F4DDC4F7F4F86A0800F550700A5A
:100D5800D8A4B1EF06F0B3EF06F0E6EF06F040C511
:100D6800D9F441C5DAF4DE2A000EDD223EC520F5AD
:100D78003FC521F542C5D9F443C5DAF4DFC444F5CB
:100D8800020EDE26DFC445F5000EDD2244C5D9F487
:100D980045C5DAF4DEC446F5DDC447F546C522F597
:100DA80047C523F5246A256A266A276A286A296AB4
:100DB800780E2A6E66EC29F020C53EF521C53FF570
:100DC8003FEF09F0936B40C5D9F441C5DAF4DEC4AE
:100DD800F6F4DDC4F7F4F86A0800F550730AD8A4ED
:100DE800F8EF06F0FAEF06F005EF07F040C5D9F482
:100DF80041C5DAF4DE2A000EDD22010E936F58EFAA
:100E080007F040C5D9F441C5DAF4DEC4F6F4DDC410
:100E1800F7F4F86A0800F5506C0AD8A416EF07F042
:100E280018EF07F058EF07F040C5D9F441C5DAF4D8
:100E3800DEC444F5DDC445F5010E4426000E452206
:100E480044C5F6F445C5F7F4F86A0800F5506C0A8D
:100E5800D8A431EF07F033EF07F058EF07F040C59B
:100E6800D9F441C5DAF4DEC444F5DDC445F5020E13
:100E78004426000E452244C5F6F445C5F7F4F86A41
:100E88000800F550730AD8A44CEF07F04EEF07F0AE
:100E980058EF07F0030E40C5D9F441C5DAF4DE2651
:100EA800000EDD2201EF07F09351D8B45EEF07F092
:100EB80060EF07F080EF07F03EC510F53FC511F56C
:100EC80042C5D9F443C5DAF4DFC444F5020EDE2680
:100ED800DFC445F5000EDD2244C5D9F445C5DAF472
:100EE800DEC412F5DDC413F55FEC2EF010C53EF537
:100EF80011C53FF53FEF09F040C5D9F441C5DAF413
:100F0800DEC49DF5DDC49EF59DC5F6F49EC5F7F4D7
:100F1800F86A0800F5C494F59DEF07F09D4B9E2BE9
:100F2800C8EF07F06C0E946FC8EF07F0946BC8EF2A
:100F380007F09451410AD8B496EF07F0040AD8B4E0
:100F480096EF07F0030AD8B496EF07F0010AD8B471
:100F580096EF07F00B0AD8B492EF07F02D0AD8B431
:100F680096EF07F0040AD8B496EF07F0030AD8B44E
:100F780096EF07F0010AD8B496EF07F00B0AD8B439
:100F880092EF07F09AEF07F09DC5F6F49EC5F7F4C7
:100F9800F86A0800F550610AD8B4D5EF07F0D7EF22
:100FA80007F076EF08F09DC5F6F49EC5F7F4F86AE9
:100FB8000800F550410AD8B4E4EF07F0E6EF07F06F
:100FC80076EF08F09DC5F6F49EC5F7F4F86A0800B8
:100FD800F550650AD8B4F3EF07F0F5EF07F076EFB0
:100FE80008F09DC5F6F49EC5F7F4F86A0800F550B8
:100FF800450AD8B402EF08F004EF08F076EF08F0DD
:101008009DC5F6F49EC5F7F4F86A0800F550660A1F
:10101800D8B411EF08F013EF08F076EF08F09DC58B
:10102800F6F49EC5F7F4F86A0800F550460AD8B4F5
:1010380020EF08F022EF08F076EF08F09DC5F6F4EF
:101048009EC5F7F4F86A0800F550670AD8B42FEF80
:1010580008F031EF08F076EF08F09DC5F6F49EC56C
:10106800F7F4F86A0800F550470AD8A43EEF08F0EC
:1010780040EF08F0F2EF08F076EF08F042C5D9F437
:1010880043C5DAF4DFC444F5040EDE26DFC445F5B3
:10109800000EDD2244C5D9F445C5DAF4DEC495F561
:1010A800DEC496F5DEC497F5DEC498F581EF08F046
:1010B80042C5D9F443C5DAF4DFC444F5040EDE268C
:1010C800DFC445F5000EDD2244C5D9F445C5DAF480
:1010D800DEC495F5DEC496F5DEC497F5DEC498F552
:1010E80081EF08F094514C0AD8B45CEF08F0200A5C
:1010F800D8B442EF08F081EF08F0010E9D25446E48
:10110800000E9E21456E40C5D9F441C5DAF444C5A8
:10111800DEF445C5DDF4C9EF08F03EC534F53FC53A
:1011280035F595C536F596C537F597C538F598C59B
:1011380039F59DC5F6F49EC5F7F4F86A0800F5C4BC
:101148003AF521EC10F034C53EF535C53FF53FEFD3
:1011580009F03EC534F53FC535F595C536F596C554
:1011680037F597C538F598C539F59DC5F6F49EC588
:10117800F7F4F86A0800F5C43AF540EC09F034C50C
:101188003EF535C53FF53FEF09F09DC5F6F49EC520
:10119800F7F4F86A0800F550410AD8B491EF08F05E
:1011A800040AD8B4ADEF08F0030AD8B4ADEF08F0DC
:1011B800010AD8B4ADEF08F0260AD8B491EF08F0C8
:1011C800040AD8B4ADEF08F0030AD8B4ADEF08F0BC
:1011D800010AD8B4ADEF08F0F2EF08F040C5D9F431
:1011E80041C5DAF4DEC4F6F4DDC4F7F4F86A0800A1
:1011F800F550250AD8A403EF09F005EF09F01AEF16
:1012080009F040C5D9F441C5DAF4DE2A000EDD2222
:10121800086A250E076E3EC509F53FC50AF503ECB9
:1012280039F03F6A010E3E6E3FEF09F040C5D9F430
:1012380041C5DAF4DE2A000EDD229BEF06F040C538
:10124800D9F441C5DAF4DEC4F6F4DDC4F7F4F86A7B
:101258000800F550076E086A3EC509F53FC50AF54E
:1012680003EC39F040C5D9F441C5DAF4DE2A000EA2
:10127800DD2215EF09F012000501846B36C587F5EC
:1012880037C588F538C589F539C58AF58ABF51EF5C
:1012980009F04FEF09F065EF09F0010E846F87C57B
:1012A80007F588C508F589C509F58AC50AF5D8EC92
:1012B80047F007C587F508C588F509C589F50AC542
:1012C8008AF50501926B000E916F58C67AF559C6DA
:1012D8007BF58451D8A473EF09F075EF09F07CEF22
:1012E80009F0FEA57AEF09F07CEF09F090EF09F01C
:1012F8008451D8A482EF09F084EF09F089EF09F04E
:10130800616B2B0E606F8CEF09F0616B2D0E606FB7
:1013180060C584F599EF09F0FEA795EF09F097EFFE
:1013280009F099EF09F0200E846F87C507F588C585
:1013380008F589C509F58AC50AF50DEC35F00704E5
:101348000810D8A4AAEF09F0ACEF09F0FCEF09F0F7
:1013580005018451D8B4B3EF09F0B5EF09F0BDEF3A
:1013680009F084C58FF67A07D8A07B07926B010E27
:10137800916F3AC53BF5BF0E3B261A0E3B60C7EF8F
:1013880009F0C9EF09F0D7EF09F08F0E9125076E24
:10139800060E9221086EEB0E096EFF0E0A6E83ECA4
:1013A80047F0E3EF09F08F0E9125076E060E9221A4
:1013B800086EF30E096EFF0E0A6E83EC47F0050106
:1013C800FD0E7A27FF0E7B2334C517F535C518F5B2
:1013D8008F0E196E060E1A6E7AC51BF57BC51CF5A5
:1013E800B8EC3BF017C534F518C535F520EF10F00B
:1013F80087C507F588C508F589C509F58AC50AF5B9
:101408000DEC35F007500810D8A40DEF0AF00FEFD7
:101418000AF048EF0AF005018451D8B416EF0AF033
:1014280018EF0AF020EF0AF084C58FF67A07D8A0E3
:101438007B07926B010E916F3AC53BF5BF0E3B26B9
:101448001A0E3B602AEF0AF02CEF0AF03AEF0AF086
:101458008F0E9125076E060E9221086EEF0E096E0B
:10146800FF0E0A6E83EC47F0E3EF09F08F0E91252B
:10147800076E060E9221086EF70E096EFF0E0A6EB1
:1014880083EC47F0E3EF09F0000E05018D6F000EC5
:101498008E6F800E8F6F3F0E906F866B000E856F7C
:1014A80087C507F588C508F589C509F58AC50AF508
:1014B800000E0B6E000E0C6E000E0D6E000E0E6E02
:1014C80018EC3DF0D8B06BEF0AF06DEF0AF04CEF76
:1014D8000BF07AEF0AF076C58DF577C58EF578C5ED
:1014E8008FF579C590F50501854B862B8DC507F5D8
:1014F8008EC508F58FC509F590C50AF5000E0B6E67
:10150800000E0C6E200E0D6E410E0E6E89EC1FF053
:1015180007C576F508C577F509C578F50AC579F5DB
:1015280005017651875D076E77518859086E7851A5
:101538008959096E79518A590A6EC8EC44F00ABE75
:10154800B1EF0AF00A500910081009E1020E075C11
:10155800D8A0B1EF0AF0B3EF0AF06FEF0AF076C542
:1015680020F577C521F578C522F579C523F587C516
:1015780024F588C525F589C526F58AC527F58EEC95
:1015880033F0D8A0CAEF0AF0CCEF0AF06FEF0AF0F8
:1015980005018D51875D076E8E518859086E8F51F0
:1015A8008959096E90518A590A6EC8EC44F00ABEEE
:1015B800EBEF0AF00A500910081007E1020E075C69
:1015C800D8B0E9EF0AF0EBEF0AF033EF0BF08DC576
:1015D80087F58EC588F58FC589F590C58AF54CEFD6
:1015E8000BF08DC507F58EC508F58FC509F590C5B3
:1015F8000AF5000E0B6E000E0C6E200E0D6E410EDD
:101608000E6EAEEC23F007C58DF508C58EF509C53D
:101618008FF50AC590F505018507D8A086078D5175
:10162800875D076E8E518859086E8F518959096EEA
:1016380090518A590A6EC8EC44F00ABE31EF0BF09B
:101648000A500910081007E1020E075CD8B02FEF06
:101658000BF031EF0BF033EF0BF0EBEF0AF087C52F
:1016680020F588C521F589C522F58AC523F58DC5DC
:1016780024F58EC525F58FC526F590C527F58EEC82
:1016880033F0D8A04AEF0BF04CEF0BF0F5EF0AF06F
:101698003AC53BF5BF0E3B26190E3B6456EF0BF0DF
:1016A80058EF0BF05EEF0BF03AC562F50501636B7E
:1016B80067EF0BF0200E3AC53BF53C6A3B1005017D
:1016C800626F3C50636F62C575F575C574F5670E3A
:1016D8007519D8A472EF0BF074EF0BF098EF0BF0BC
:1016E80058505910D8A47BEF0BF07DEF0BF080EF2A
:1016F8000BF0596A010E586E59BE8DEF0BF0595018
:1017080006E15804D8B08BEF0BF08DEF0BF092EF99
:101718000BF0736B060E726FA1EF0BF058C572F5E4
:1017280059C573F5A1EF0BF059BE9DEF0BF09FEF74
:101738000BF08DEF0BF092EF0BF0670E7519D8A434
:10174800A8EF0BF0AAEF0BF0D3EF0BF086AFB8EFD2
:101758000BF0FC0E855DFF0E8659D8A0B6EF0BF096
:10176800B8EF0BF0D1EF0BF0FF0E72253B6EFF0EBA
:1017780073213C6E85513B5C3C50800A3D6E86511E
:10178800800A3D58D8A0CBEF0BF0CDEF0BF0D1EF8E
:101798000BF0660E746FD3EF0BF0650E746F72C5A5
:1017A8006EF573C56FF5670E7519D8A4DEEF0BF0EB
:1017B800E0EF0BF0F0EF0BF0660E7419D8A4E7EF2A
:1017C8000BF0E9EF0BF0F2EF0BF086BFF0EF0BF048
:1017D800EEEF0BF0F2EF0BF06E4B6F2B660E7419F9
:1017E800D8A4F9EF0BF0FBEF0BF01AEF0CF086BF63
:1017F80002EF0CF000EF0CF00DEF0CF0000E8D6F07
:10180800000E8E6F800E8F6F3F0E906F866B000EEE
:10181800856F670E7519D8B414EF0CF016EF0CF03D
:101828001AEF0CF085516E2786516F238C6B000ED2
:101838008B6F87C57CF588C57DF589C57EF58AC51A
:101848007FF58DC576F58EC577F58FC578F590C58A
:1018580079F5AAEF0CF07CC507F57DC508F57EC5BE
:1018680009F57FC50AF58DC50BF58EC50CF58FC535
:101878000DF590C50EF5AEEC23F007C520F508C5AB
:1018880021F509C522F50AC523F598EC2AF020C5EB
:1018980080F521C581F522C582F523C583F580C56C
:1018A80007F581C508F582C509F583C50AF50BEC6E
:1018B80033F007C570F508C571F57CC520F57DC501
:1018C80021F57EC522F57FC523F580C50BF581C5B9
:1018D8000CF582C50DF583C50EF58DC507F58EC5CA
:1018E80008F58FC509F590C50AF589EC1FF007C5FD
:1018F80024F508C525F509C526F50AC527F550ECD0
:1019080046F020C57CF521C57DF522C57EF523C5A9
:101918007FF58DC507F58EC508F58FC509F590C506
:101928000AF5000E0B6E000E0C6E200E0D6E410EA9
:101938000E6EAEEC23F007C58DF508C58EF509C50A
:101948008FF50AC590F505018B4B8C2B6E518B5D7D
:101958008C51800A3B6E6F51800A3B58D8A0B7EF74
:101968000CF0B9EF0CF02FEF0CF08DC507F58EC514
:1019780008F58FC509F590C50AF5000E0B6E000E27
:101988000C6EA00E0D6E400E0E6E89EC1FF007C592
:1019980080F508C581F509C582F50AC583F57CC5BA
:1019A80020F57DC521F57EC522F57FC523F580C5C7
:1019B80024F581C525F582C526F583C527F58EEC66
:1019C80033F0D8B0EAEF0CF0ECEF0CF0F7EF0CF0D6
:1019D800000E0501806F000E816F000E826F000EF1
:1019E800836F20EF0DF07CC507F57DC508F57EC532
:1019F80009F57FC50AF580C50BF581C50CF582C5CB
:101A08000DF583C50EF518EC3DF0D8A00EEF0DF0DE
:101A180010EF0DF020EF0DF0050170B116EF0DF08D
:101A280018EF0DF020EF0DF0000E806F000E816FA3
:101A3800000E826F000E836F87C507F588C508F50D
:101A480089C509F58AC50AF580C50BF581C50CF568
:101A580082C50DF583C50EF52EEC1DF007C57CF586
:101A680008C57DF509C57EF50AC57FF57CC520F555
:101A78007DC521F57EC522F57FC523F5000E0B6EC9
:101A8800000E0C6E200E0D6E410E0E6E76C507F51B
:101A980077C508F578C509F579C50AF589EC1FF009
:101AA80007C524F508C525F509C526F50AC527F58E
:101AB8008EEC33F0D8A063EF0DF065EF0DF08EEFEC
:101AC8000DF00501854B862B76C507F577C508F51A
:101AD80078C509F579C50AF5000E0B6E000E0C6E77
:101AE800200E0D6E410E0E6E89EC1FF007C576F5BF
:101AF80008C577F509C578F50AC579F5660E0501B3
:101B08007419D8A48AEF0DF08CEF0DF08EEF0DF05C
:101B18006E4B6F2B76C58DF577C58EF578C58FF52D
:101B280079C590F5650E05017419D8B49EEF0DF0CE
:101B3800A0EF0DF0A6EF0DF085C56BF586C56CF529
:101B4800A9EF0DF06C6B000E6B6F6D6B696B000E7F
:101B5800686F8C6B000E8B6FBAEF0EF07CC507F5C3
:101B68007DC508F57EC509F57FC50AF58DC50BF558
:101B78008EC50CF58FC50DF590C50EF5AEEC23F0AE
:101B880007C520F508C521F509C522F50AC523F5BD
:101B980098EC2AF020C580F521C581F522C582F58B
:101BA80023C583F580C507F581C508F582C509F504
:101BB80083C50AF50BEC33F008BEEEEF0DF00850C4
:101BC80007E10A0E075CD8B0ECEF0DF0EEEF0DF070
:101BD800FEEF0DF080C507F581C508F582C509F54A
:101BE80083C50AF50BEC33F007C570F508C571F528
:101BF80002EF0EF00501716B090E706F050170514F
:101C08007111D8A40AEF0EF00CEF0EF027EF0EF0CA
:101C1800670E7519D8A413EF0EF015EF0EF027EF25
:101C28000EF06CBF1CEF0EF01AEF0EF027EF0EF05F
:101C3800FEB921EF0EF023EF0EF027EF0EF0684B00
:101C4800692B6EEF0EF06D51D8A42DEF0EF02FEF2B
:101C58000EF057EF0EF06CBF36EF0EF034EF0EF0CB
:101C680057EF0EF08F0E9125D96E060E9221DA6E7F
:101C78002E0EDF6E914B922B7A07D8A07B07010EB0
:101C88006D6F57EF0EF08F0E9125D96E060E9221CB
:101C9800DA6E300EDF6E914B922B7A07D8A07B0755
:101CA8006807D8A0690768516911D8A45EEF0EF0DB
:101CB80060EF0EF047EF0EF08F0E9125D96E060EED
:101CC8009221DA6E7051300FDF6E914B922B7A07AA
:101CD800D8A07B077CC520F57DC521F57EC522F5FA
:101CE8007FC523F580C50BF581C50CF582C50DF5BB
:101CF80083C50EF58DC507F58EC508F58FC509F5A1
:101D080090C50AF589EC1FF007C524F508C525F527
:101D180009C526F50AC527F550EC46F020C57CF51F
:101D280021C57DF522C57EF523C57FF58DC507F54F
:101D38008EC508F58FC509F590C50AF5000E0B6E1E
:101D4800000E0C6E200E0D6E410E0E6EAEEC23F0E2
:101D580007C58DF508C58EF509C58FF50AC590F537
:101D680005016B07D8A06C078B4B8C2B6E518B5DD4
:101D78008C51800A3B6E6F51800A3B58D8B0C7EF30
:101D88000EF0C9EF0EF0D7EF0EF092BFD5EF0EF0C0
:101D9800925109E14B0E915DD8A0D5EF0EF0D7EF27
:101DA8000EF0B2EF0DF06D51D8A4DDEF0EF0DFEFBD
:101DB8000EF0F0EF0EF0FEA9E4EF0EF0E6EF0EF0F5
:101DC800F0EF0EF08F0E9125D96E060E9221DA6E85
:101DD8002E0EDF6E914B922B8C6B4F0E8B6F8F0EEE
:101DE8008B25D96E060E8C21DA6EDF6A650E7419A2
:101DF800D8A401EF0FF003EF0FF095EF0FF06A6B27
:101E080086BF0BEF0FF009EF0FF011EF0FF0010E87
:101E18006A6F856D861FD8B0862B736B020E726F42
:101E28003FEF0FF08B07D8A08C078F0E8B25D96E4C
:101E3800060E8C21DA6E85C507F586C508F50A6A8F
:101E48000A0E096EC1EC3CF00750300FDF6E85C5F5
:101E580007F586C508F50A6A0A0E096E58EC3BF0C4
:101E680007C585F508C586F505017207D8A073076B
:101E78007A07D8A07B0785518611D8A446EF0FF0C2
:101E880048EF0FF016EF0FF073BF55EF0FF07351D7
:101E980006E17205D8B053EF0FF055EF0FF016EFCB
:101EA8000FF08B07D8A08C076A51D8A45EEF0FF00B
:101EB80060EF0FF065EF0FF0656B2B0E646F68EF46
:101EC8000FF0656B2D0E646F8F0E8B25D96E060E85
:101ED8008C21DA6E64C5DFF47A07D8A07B078B07FC
:101EE800D8A08C073AC53BF5BF0E3B26190E3B64BC
:101EF80080EF0FF082EF0FF087EF0FF0676B650E42
:101F0800666F8AEF0FF0676B450E666F8F0E8B2535
:101F1800D96E060E8C21DA6E66C5DFF47A07D8A072
:101F28007B078F0E3B6E060E3C6E91513B5E9251C5
:101F38003C5A8B513B24076E8C513C20086E8F0E07
:101F4800096E060E0A6E91C50BF592C50CF546ECA6
:101F580045F0050191518B5D916F92518C59926FAB
:101F68008451D8A4BAEF0FF0BDEF0FF0010EBEEF09
:101F78000FF0000E8B6F8C6BFEA3C5EF0FF0C7EF51
:101F88000FF0F5EF0FF0D7EF0FF09107D8A09207F9
:101F98008F0E9125D96E060E9221DA6E300EDF6E05
:101FA8007A07D8A07B077A518B5D8C51800A3B6EEB
:101FB8007B51800A3B58D8B0E4EF0FF0E6EF0FF002
:101FC800F5EF0FF091518B5D8C51800A3B6E925169
:101FD800800A3B58D8A0F3EF0FF0F5EF0FF0C9EFE8
:101FE8000FF08451D8B4FBEF0FF0FDEF0FF008EFBE
:101FF80010F09107D8A092078F0E9125D96E060E82
:102008009221DA6E84C5DFF48B517A5F8C517B5B49
:1020180034C517F535C518F58F0E9125196E060EBE
:1020280092211A6E7AC51BF57BC51CF5B8EC3BF0FE
:1020380017C534F518C535F512003AC53BF5BF0E7E
:102048003B26190E3B642BEF10F02EEF10F0010E1B
:102058002FEF10F0000E3A6E0501886B36C582F539
:1020680037C583F538C584F539C585F585BF41EF92
:1020780010F03FEF10F055EF10F0010E886F82C599
:1020880007F583C508F584C509F585C50AF5D8ECB3
:1020980047F007C582F508C583F509C584F50AC563
:1020A80085F50501906B000E8F6F58C678F559C6F7
:1020B80079F58851D8A463EF10F065EF10F06CEF54
:1020C80010F0FEA56AEF10F06CEF10F080EF10F042
:1020D8008851D8A472EF10F074EF10F079EF10F077
:1020E800656B2B0E646F7CEF10F0656B2D0E646FC3
:1020F80064C588F589EF10F0FEA785EF10F087EF2B
:1021080010F089EF10F0200E886F82C507F583C59F
:1021180008F584C509F585C50AF50DEC35F0070401
:102128000810D8A49AEF10F09CEF10F0E8EF10F028
:1021380005018851D8B4A3EF10F0A5EF10F0ADEF6A
:1021480010F088C58FF6906B010E8F6F7807D8A0B6
:1021580079073A50D8B4B3EF10F0B5EF10F0C3EFE9
:1021680010F08F0E8F25076E060E9021086EEB0E6D
:10217800096EFF0E0A6E83EC47F0CFEF10F08F0E5A
:102188008F25076E060E9021086EF30E096EFF0E5E
:102198000A6E83EC47F00501FD0E7827FF0E7923C0
:1021A80034C517F535C518F58F0E196E060E1A6E5B
:1021B80078C51BF579C51CF5B8EC3BF017C534F5A7
:1021C80018C535F55BEF16F082C507F583C508F528
:1021D80084C509F585C50AF50DEC35F007500810DA
:1021E800D8A4F9EF10F0FBEF10F030EF11F0050173
:1021F8008851D8B402EF11F004EF11F00CEF11F090
:1022080088C58FF6906B010E8F6F7807D8A0790775
:102218003A50D8B412EF11F014EF11F022EF11F088
:102228008F0E8F25076E060E9021086EEF0E096E31
:10223800FF0E0A6E83EC47F0CFEF10F08F0E8F255C
:10224800076E060E9021086EF70E096EFF0E0A6ED5
:1022580083EC47F0CFEF10F0000E0501896F000EF8
:102268008A6F800E8B6F3F0E8C6F776B000E766FC8
:1022780082C507F583C508F584C509F585C50AF53E
:10228800000E0B6E000E0C6E000E0D6E000E0E6E24
:1022980018EC3DF0D8B053EF11F055EF11F0D8EF2E
:1022A80011F074EF11F089C507F58AC508F58BC5DB
:1022B80009F58CC50AF5000E0B6E000E0C6E000EAB
:1022C8000D6E400E0E6E89EC1FF007C589F508C526
:1022D8008AF509C58BF50AC58CF50501764B772B70
:1022E80082C520F583C521F584C522F585C523F56A
:1022F800000E0B6E000E0C6E000E0D6E400E0E6E74
:1023080089C507F58AC508F58BC509F58CC50AF591
:1023180089EC1FF007C524F508C525F509C526F57C
:102328000AC527F58EEC33F0D8B09DEF11F09FEF7A
:1023380011F057EF11F0BFEF11F089C507F58AC505
:1023480008F58BC509F58CC50AF5000E0B6E000E55
:102358000C6E000E0D6E400E0E6EAEEC23F007C52F
:1023680089F508C58AF509C58BF50AC58CF50501F7
:102378007607D8A0770782C520F583C521F584C5DF
:1023880022F585C523F589C524F58AC525F58BC5AC
:1023980026F58CC527F58EEC33F0D8A0D6EF11F0D2
:1023A800D8EF11F0A1EF11F059BEDDEF11F0DFEF1A
:1023B80011F0E5EF11F058C571F559C572F5E9EF5F
:1023C80011F00501726B4A0E716F010E050171253E
:1023D8006D6F000E72216E6F8E6B000E8D6F82C551
:1023E8007AF583C57BF584C57CF585C57DF589C5FA
:1023F80060F58AC561F58BC562F58CC563F580EF1C
:1024080012F07AC507F57BC508F57CC509F57DC5C9
:102418000AF589C50BF58AC50CF58BC50DF58CC574
:102428000EF5AEEC23F007C520F508C521F509C562
:1024380022F50AC523F598EC2AF020C57EF521C5BA
:102448007FF522C580F523C581F57EC507F57FC5D3
:1024580008F580C509F581C50AF50BEC33F007C509
:1024680086F508C587F57AC520F57BC521F57CC5B5
:1024780022F57DC523F589C50BF58AC50CF58BC5F5
:102488000DF58CC50EF57EC507F57FC508F580C529
:1024980009F581C50AF589EC1FF007C524F508C5BB
:1024A80025F509C526F50AC527F550EC46F020C5DF
:1024B8007AF521C57BF522C57CF523C57DF589C54F
:1024C80007F58AC508F58BC509F58CC50AF5000E10
:1024D8000B6E000E0C6E800E0D6E410E0E6EAEEC85
:1024E80023F007C589F508C58AF509C58BF50AC51E
:1024F8008CF505018D4B8E2B6D518D5D8E51800AAB
:102508003B6E6E51800A3B58D8A08DEF12F08FEFCA
:1025180012F005EF12F089C507F58AC508F58BC5D5
:1025280009F58CC50AF5000E0B6E000E0C6E000E38
:102538000D6E410E0E6E89EC1FF007C57EF508C5BD
:102548007FF509C580F50AC581F57AC520F57BC5F3
:1025580021F57CC522F57DC523F57EC524F57FC50B
:1025680025F580C526F581C527F58EEC33F0D8B062
:10257800C0EF12F0C2EF12F0CDEF12F0000E05011D
:102588007E6F000E7F6F000E806F000E816FF6EF7A
:1025980012F07AC507F57BC508F57CC509F57DC538
:1025A8000AF57EC50BF57FC50CF580C50DF581C50F
:1025B8000EF518EC3DF0D8A0E4EF12F0E6EF12F0BB
:1025C800F6EF12F0050186B1ECEF12F0EEEF12F023
:1025D800F6EF12F0000E7E6F000E7F6F000E806F18
:1025E800000E816F82C507F583C508F584C509F516
:1025F80085C50AF57EC50BF57FC50CF580C50DF5BB
:1026080081C50EF52EEC1DF007C57AF508C57BF5DA
:1026180009C57CF50AC57DF560C589F561C58AF5EA
:1026280062C58BF563C58CF50501706B000E6F6F85
:10263800756B746B000E736F8E6B000E8D6F6BEF86
:1026480014F07AC507F57BC508F57CC509F57DC585
:102658000AF589C50BF58AC50CF58BC50DF58CC532
:102668000EF5AEEC23F007C520F508C521F509C520
:1026780022F50AC523F598EC2AF020C57EF521C578
:102688007FF522C580F523C581F57EC507F57FC591
:1026980008F580C509F581C50AF50BEC33F007C5C7
:1026A80086F508C587F5050186518711D8A45FEF1F
:1026B80013F061EF13F073EF13F070BF68EF13F0CE
:1026C80066EF13F073EF13F0FEB96DEF13F06FEFD1
:1026D80013F073EF13F0734B742BFDEF13F0755178
:1026E800D8A479EF13F07BEF13F0A3EF13F070BFCA
:1026F80082EF13F080EF13F0A3EF13F08F0E8F2506
:10270800D96E060E9021DA6E2E0EDF6E8F4B902B4F
:102718007807D8A07907010E756FA3EF13F08F0E15
:102728008F25D96E060E9021DA6E300EDF6E8F4B34
:10273800902B7807D8A079077307D8A0740773512E
:102748007411D8A4AAEF13F0ACEF13F093EF13F0C1
:1027580087BFB8EF13F0875109E10A0E865DD8A04C
:10276800B8EF13F0BAEF13F0C2EF13F0570E862547
:10277800866F000E8721876FC8EF13F0300E86250D
:10278800866F000E8721876F3A50D8B4CEEF13F0CA
:10279800D0EF13F0F0EF13F086C53BF5200E3B1297
:1027A8009F0E3B261A0E3B60DCEF13F0DEEF13F0B2
:1027B800F0EF13F086C53BF59F0E3B26190E3B64E0
:1027C800E8EF13F0EAEF13F0ECEF13F0F0EF13F08B
:1027D8005F0E8615866F876B8F0E8F25D96E060E56
:1027E8009021DA6E86C5DFF48F4B902B7807D8A03E
:1027F80079077AC520F57BC521F57CC522F57DC50D
:1028080023F589C50BF58AC50CF58BC50DF58CC567
:102818000EF57EC507F57FC508F580C509F581C5A4
:102828000AF589EC1FF007C524F508C525F509C583
:1028380026F50AC527F550EC46F020C57AF521C5DE
:102848007BF522C57CF523C57DF589C507F58AC5C5
:1028580008F58BC509F58CC50AF5000E0B6E000E40
:102868000C6E800E0D6E410E0E6EAEEC23F007C599
:1028780089F508C58AF509C58BF50AC58CF50501E2
:102888006F07D8A070078D4B8E2B59BE50EF14F0F0
:102898004EEF14F06BEF14F07AC507F57BC508F519
:1028A8007CC509F57DC50AF5000E0B6E000E0C6E91
:1028B800000E0D6E000E0E6E18EC3DF0D8A067EFFE
:1028C80014F069EF14F06BEF14F089EF14F00501C0
:1028D8006D518D5D8E51800A3B6E6E51800A3B585A
:1028E800D8B079EF14F07BEF14F089EF14F090BFB3
:1028F80087EF14F0905109E14B0E8F5DD8A087EF58
:1029080014F089EF14F025EF13F005017551D8A4E0
:1029180090EF14F092EF14F0D7EF14F07351741194
:10292800D8B499EF14F09BEF14F0D7EF14F059BE18
:10293800A6EF14F0595008E15804D8A0A6EF14F0F7
:10294800A8EF14F0D7EF14F090BFB6EF14F0905141
:1029580007E14B0E8F5DD8B0B4EF14F0B6EF14F06A
:10296800D7EF14F0010E756F8F0E8F25D96E060EF6
:102978009021DA6E2E0EDF6E8F4B902B7807D8A041
:102988007907D7EF14F08F0E8F25D96E060E902198
:10299800DA6E300EDF6E8F4B902B7807D8A0790750
:1029A8007307D8A0740773517411D8B4DEEF14F00C
:1029B800E0EF14F0EEEF14F090BFECEF14F090514C
:1029C80009E14B0E8F5DD8A0ECEF14F0EEEF14F098
:1029D800C7EF14F07551D8A4F4EF14F0F6EF14F023
:1029E80007EF15F0FEA9FBEF14F0FDEF14F007EF69
:1029F80015F08F0E8F25D96E060E9021DA6E2E0EE9
:102A0800DF6E8F4B902B8F0E8F25D96E060E90217F
:102A1800DA6EDF6A8E6B4F0E8D6F8F0E8D25D96E35
:102A2800060E8E21DA6EDF6A6C6B77BF20EF15F029
:102A38001EEF15F026EF15F0010E6C6F766D771FFF
:102A4800D8B0772B726B010E716F54EF15F08D07AC
:102A5800D8A08E078F0E8D25D96E060E8E21DA6EC0
:102A680076C507F577C508F50A6A0A0E096EC1EC3E
:102A78003CF00750300FDF6E76C507F577C508F5CF
:102A88000A6A0A0E096E58EC3BF007C576F508C5C8
:102A980077F505017107D8A072077807D8A07907DC
:102AA80076517711D8A45BEF15F05DEF15F02BEF99
:102AB80015F072BF6AEF15F0725106E17105D8B0D2
:102AC80068EF15F06AEF15F02BEF15F08D07D8A019
:102AD8008E076C51D8A473EF15F075EF15F07AEFE7
:102AE80015F0676B2B0E666F7DEF15F0676B2D0E7B
:102AF800666F8F0E8D25D96E060E8E21DA6E66C52D
:102B0800DFF47807D8A079078D07D8A08E073A5048
:102B1800D8A491EF15F093EF15F098EF15F0696BC5
:102B2800700E686F9BEF15F0696B500E686F8F0E13
:102B38008D25D96E060E8E21DA6E68C5DFF478070A
:102B4800D8A079078F0E3B6E060E3C6E8F513B5E08
:102B580090513C5A8D513B24076E8E513C20086E93
:102B68008F0E096E060E0A6E8FC50BF590C50CF513
:102B780046EC45F005018F518D5D8F6F90518E5950
:102B8800906F8851D8A4CBEF15F0CDEF15F0D2EFA8
:102B980015F08E6B020E8D6FD5EF15F08E6B030E50
:102BA8008D6FFEA3DAEF15F0DCEF15F00AEF16F0E3
:102BB800ECEF15F08F07D8A090078F0E8F25D96EF0
:102BC800060E9021DA6E300EDF6E7807D8A07907EE
:102BD80078518D5D8E51800A3B6E7951800A3B5841
:102BE800D8B0F9EF15F0FBEF15F00AEF16F08F519A
:102BF8008D5D8E51800A3B6E9051800A3B58D8A05B
:102C080008EF16F00AEF16F0DEEF15F03A50D8A4E8
:102C180010EF16F012EF16F017EF16F06B6B780E38
:102C28006A6F1AEF16F06B6B580E6A6F8F07D8A091
:102C380090078F0E8F25D96E060E9021DA6E6AC521
:102C4800DFF48F07D8A090078F0E8F25D96E060E58
:102C58009021DA6E300EDF6E8851D8B436EF16F058
:102C680038EF16F043EF16F08F07D8A090078F0EB5
:102C78008F25D96E060E9021DA6E88C5DFF48D5146
:102C8800785F8E51795B34C517F535C518F58F0E09
:102C98008F25196E060E90211A6E78C51BF579C519
:102CA8001CF5B8EC3BF017C534F518C535F512001E
:102CB800386EDF0E3824D96EDA6A060EDA22DFB0F3
:102CC80068EF16F06BEF16F0010E6CEF16F0000EC1
:102CD800286E2850D8A473EF16F075EF16F07AEF27
:102CE80016F0000E186E17687DEF16F0186A000EC1
:102CF800176E17C521F5416A38500D0D750EF3246E
:102D0800116E080EF420126E41501124D96E000E77
:102D18001220DA6EDF50376E1F0E376496EF16F00A
:102D280098EF16F0A0EF16F07E0E37649EEF16F0BF
:102D3800A0EF16F0A2EF16F03F0E376E38500D0DCB
:102D4800000EF324116E080EF420126E4150112467
:102D5800D96E000E1220DA6EDF50030B296E29504F
:102D6800020DE50EF324F66ECF0EF420F76EF86A26
:102D7800000EF8224150020D5B0EF324D96E070EA7
:102D8800F420DA6E0900F5C4DEF40800F5C4DDF4B9
:102D98002950020DDD0EF324F66ECF0EF420F76EE7
:102DA800F86A000EF8220900F5C415F50A00F5C402
:102DB80016F53750E00F226E2250070DF3C411F5B7
:102DC800F4C412F5115015243D6E125016203E6EB3
:102DD8003DC5F6F43EC5F7F4F86A4150070D000EFC
:102DE800F324D96E070EF420DA6E0900F5C4DEF478
:102DF8000800F5C4DDF4020E3D24116E000E3E20DD
:102E0800126E11C5F6F412C5F7F4F86A4150070DB1
:102E1800020EF324D96E070EF420DA6E0800F5C40A
:102E2800DFF4030E3D24116E000E3E20126E11C514
:102E3800F6F412C5F7F4F86A4150070D030EF324AF
:102E4800D96E070EF420DA6E0800F5C4DFF4040E1C
:102E58003D24116E000E3E20126E11C5F6F412C507
:102E6800F7F4F86A4150070D040EF324D96E070EE3
:102E7800F420DA6E0800F5C4DFF4050E3D24116E67
:102E8800000E3E20126E11C5F6F412C5F7F4F86A6A
:102E98004150070D050EF324D96E070EF420DA6EA3
:102EA8000800F5C4DFF4060E3D24116E000E3E2026
:102EB800126E11C5F6F412C5F7F4F86A4150070D01
:102EC800060EF324D96E070EF420DA6E0800F5C456
:102ED800DFF44150070D020EF324D96E070EF420DB
:102EE800DA6EDF50346E8F0E4124D96EDA6A070E1F
:102EF800DA223450116E126A070E1126000E1222C1
:102F08001234123211321234123211321234123295
:102F180011321150DF6E820E4124D96EDA6A070E23
:102F2800DA224150070D050EF324E16E070EF42056
:102F3800E26EE750116E41500B0DF3501124DF6E15
:102F480041280B0DF3C42AF5820E4124D96EDA6AA2
:102F5800070EDA22DF502B6E2A502B5CD8A0B7EF71
:102F680017F0B9EF17F0BEEF17F01A6A000E196ED6
:102F7800C4EF17F02B502A5C196E1A6AD8A01A06EB
:102F880019C52CF52C50345CD8A0CDEF17F0CFEF35
:102F980017F0D4EF17F02CC51BF51C6AD7EF17F004
:102FA80034C51BF51C6A750E4124D96EDA6A070E02
:102FB800DA221BC5DFF4412A0C0E4164E6EF17F054
:102FC800E8EF17F080EF16F03C6A110E3C64EFEF63
:102FD80017F0F1EF17F0F3EF17F0FBEF19F0385097
:102FE800120DF3503C24236E9C0E076E070E086EDC
:102FF80021C509F50A6A0C6A120E0B6EBCEC47F083
:10300800406A0C0E40640BEF18F00DEF18F00FEF4C
:1030180018F0EFEF19F04050070D020EF324D96EA7
:10302800070EF420DA6EDF502D6E4050070D030EA8
:10303800F324D96E070EF420DA6EDF502E6E2D5071
:10304800D8B429EF18F02BEF18F0ECEF19F02E5048
:10305800D8A431EF18F033EF18F035EF18F0ECEF93
:1030680019F04050070D060EF324D96E070EF42010
:10307800DA6EDF50116E11503C5CF30F356E35BEC1
:1030880048EF18F04AEF18F0ECEF19F03550800AC5
:10309800116E2E50800A115CD8A055EF18F057EF2A
:1030A80018F059EF18F0ECEF19F08F0E4024D96E94
:1030B800DA6A070EDA22DF50366E4050070D000E2E
:1030C800F324D96E070EF420DA6EDEC411F5DDC4E0
:1030D80012F535503602F3C413F5F4C414F5115043
:1030E8001324246E12501420256E4050020D5B0EDE
:1030F800F324D96E070EF420DA6EDEC426F5DDC49B
:1031080027F524502624116E25502720126E11C54C
:10311800F6F412C5F7F4F86A0800F5C432F5020EA1
:10312800366099EF18F09BEF18F0A0EF18F01E6AC0
:10313800000E1D6EB3EF18F024502624116E255092
:103148002720126E010E1126000E122211C5F6F468
:1031580012C5F7F4F86A0800F5501D6E1E6A1DC501
:1031680033F5750E4024D96EDA6A070EDA22DF507D
:10317800396E080E3960C3EF18F0C5EF18F0D6EFB6
:1031880018F039C511F5010E126E112ACEEF18F09C
:10319800D8901236112ECCEF18F012043216336A7A
:1031A800EFEF18F02D50395CD8B0DDEF18F0DFEFF5
:1031B80018F0EFEF18F039C511F5F80E1126010EC9
:1031C800126E112AEAEF18F0D8901236112EE8EF95
:1031D80018F012043316820E4024D96EDA6A070EEC
:1031E800DA22DF502F6E2F38E8461F0B3F6E2F5024
:1031F800070B3A6E3AC511F532C512F5112A07EFD9
:1032080019F0D8901236112E05EF19F01250306EC1
:103218003A500808116E3350136E3250126E112A4C
:1032280019EF19F0D89013321232112E16EF19F047
:103238001250316E3A50D8B424EF19F026EF19F035
:103248002EEF19F0020E36602CEF19F02EEF19F060
:1032580033EF19F0206A000E1F6E43EF19F03A5051
:103268000808116E33C512F5112A3DEF19F0D890F0
:103278001232112E3BEF19F012501F6E206A1FC533
:103288003BF52850D8A44BEF19F04DEF19F0A2EFF9
:1032980019F03050FF0A116E9C0E3F24D96EDA6A7D
:1032A800070EDA221150DF163F50116E126A010E16
:1032B8001126000E122212BE6DEF19F0125007E10E
:1032C800120E115CD8B06BEF19F06DEF19F078EFB2
:1032D80019F03150FF0A116E9D0E3F24D96EDA6A3B
:1032E800070EDA221150DF163B50D8B47EEF19F0E2
:1032F80080EF19F0ECEF19F03F50116E126A020ED0
:103308001126000E122212BE95EF19F0125007E195
:10331800120E115CD8B093EF19F095EF19F0ECEF9D
:1033280019F03B50FF0A116E9E0E3F24D96EDA6ADF
:10333800070EDA221150DF16ECEF19F09C0E3F242D
:10334800D96EDA6A070EDA223050DF123F50116E5A
:10335800126A010E1126000E122212BEBFEF19F0DA
:10336800125007E1120E115CD8B0BDEF19F0BFEF93
:1033780019F0C7EF19F09D0E3F24D96EDA6A070ECF
:10338800DA223150DF123B50D8B4CDEF19F0CFEF2D
:1033980019F0ECEF19F03F50116E126A020E112667
:1033A800000E122212BEE4EF19F0125007E1120EBD
:1033B800115CD8B0E2EF19F0E4EF19F0ECEF19F076
:1033C8009E0E3F24D96EDA6A070EDA223B50DF12CE
:1033D800402A05EF18F09C0E0D6E070E0E6E120EA9
:1033E8000F6E23282BEC4AF03C2AE9EF17F0120065
:1033F800F2EC36F00501F06F030EF019D8A407EFD0
:103408001AF009EF1AF002EF1DF0F3EC44F02DEF7B
:103418001DF0F005D8A413EF1AF015EF1AF03BEFE2
:103428001AF0080E060170250501DA6F000E060174
:1034380071210501DB6F040EDB5DD8A026EF1AF0C1
:1034480028EF1AF02EEF1AF0030E0601716F70695B
:1034580033EF1AF0080E06017027000E712370C6AC
:1034680007F571C608F53AEC4BF070EF1AF0020E4A
:10347800F019D8A442EF1AF044EF1AF05BEF1AF0F3
:103488000601715107E1080E705DD8B04EEF1AF0D1
:1034980050EF1AF055EF1AF0716B000E706F33EFA2
:1034A8001AF0080E705F000E715B33EF1AF0040E0D
:1034B800F019D8A462EF1AF064EF1AF070EF1AF05E
:1034C8000E6A000E0D6EBCEC45F0010E0601866F0B
:1034D80010EC3EF02DEF1DF070C620F571C621F5F9
:1034E80071EC43F020C5DCF521C5DDF5000E0501C2
:1034F800BB6F210EBC6FFE0EBD6FDCC5BEF5DDC512
:10350800BFF5040EA1EC2BF060EC49F00BC520F5DB
:103518000CC521F5A4EC43F020C5DEF521C5DFF587
:1035280006015C510501DE190BE106015D5105013B
:10353800DF19D8B4A2EF1AF0A4EF1AF0B5EF1AF019
:10354800000EBB6F2E0EBC6FFE0EBD6FDEC5BEF546
:10355800DFC5BFF5050EA1EC2BF0DEC55CF6DFC5B7
:103568005DF6E7EC41F02DEF1DF0F005D8A4BFEFB4
:103578001AF0C1EF1AF0E6EF1AF0FF51DA6FDB6BC1
:10358800010EDA27000EDB23DB05D8A0CEEF1AF0F8
:10359800D0EF1AF0D3EF1AF0FF69D4EF1AF0FF2B2F
:1035A800FF5166EC4BF0000E0501BB6F140EBC6FAB
:1035B800FE0EBD6FFFC5BEF5BF6B040EA1EC2BF070
:1035C800B5EF1AF0020EF019D8A4EDEF1AF0EFEFEC
:1035D8001AF00DEF1BF0FF51D8A4F5EF1AF0F7EF32
:1035E8001AF0FAEF1AF0FF6BFBEF1AF0FF07FF5122
:1035F80066EC4BF0000E0501BB6F140EBC6FFE0E9F
:10360800BD6FFFC5BEF5BF6B040EA1EC2BF0B5EF87
:103618001AF0040EF019D8A414EF1BF016EF1BF0E3
:103628002DEF1DF06EC65AF56FC65BF55AC50DF540
:103638005BC50EF5BCEC45F0020E0601866F86EC04
:103648003FF02DEF1DF0F005D8A42DEF1BF02FEF64
:103658001BF05EEF1BF0100E5A24DA6F000E5B2091
:10366800DB6FDA290F0EDB59D8A03DEF1BF03FEFD7
:103678001BF044EF1BF00F0E5B6E5A6848EF1BF00F
:10368800100E5A26000E5B225AC50DF55BC50EF5C5
:10369800BCEC45F0000E0501BB6FED0EBC6FFE0ED5
:1036A800BD6F5AC5BEF55BC5BFF5030EA1EC2BF087
:1036B800B5EF1AF0020EF019D8A465EF1BF067EF0A
:1036C8001BF091EF1BF05B5007E1100E5A5CD8B06D
:1036D80070EF1BF072EF1BF077EF1BF05B6A000EC8
:1036E8005A6E7BEF1BF0100E5A5E000E5B5A5AC5DD
:1036F8000DF55BC50EF5BCEC45F0000E0501BB6F82
:10370800ED0EBC6FFE0EBD6F5AC5BEF55BC5BFF5AD
:10371800030EA1EC2BF0B5EF1AF0040EF019D8A4A3
:1037280098EF1BF09AEF1BF02DEF1DF05AC56EF6BF
:103738005BC56FF66CC65AF56DC65BF55AC50DF5D7
:103748005BC50EF5BCEC45F0030E0601866FCDECAB
:103758003FF02DEF1DF0F005D8A4B5EF1BF0B7EF43
:103768001BF0E6EF1BF0100E5A24DA6F000E5B20F8
:10377800DB6FDA290F0EDB59D8A0C5EF1BF0C7EFB6
:103788001BF0CCEF1BF00F0E5B6E5A68D0EF1BF0EE
:10379800100E5A26000E5B225AC50DF55BC50EF5B4
:1037A800BCEC45F0000E0501BB6FED0EBC6FFE0EC4
:1037B800BD6F5AC5BEF55BC5BFF5030EA1EC2BF076
:1037C800B5EF1AF0020EF019D8A4EDEF1BF0EFEFE9
:1037D8001BF019EF1CF05B5007E1100E5A5CD8B0D3
:1037E800F8EF1BF0FAEF1BF0FFEF1BF05B6A000E1F
:1037F8005A6E03EF1CF0100E5A5E000E5B5A5AC543
:103808000DF55BC50EF5BCEC45F0000E0501BB6F70
:10381800ED0EBC6FFE0EBD6F5AC5BEF55BC5BFF59C
:10382800030EA1EC2BF0B5EF1AF0040EF019D8A492
:1038380020EF1CF022EF1CF02DEF1DF05AC56CF69E
:103848005BC56DF6040E0601866FE1EC40F02DEFC6
:103858001DF0040EF019D8A434EF1CF036EF1CF05C
:1038680043EF1CF060EC49F00BC56AF60CC56BF62B
:10387800050E0601866F23EC41F02DEF1DF060EC7C
:1038880049F00BC5E0F50CC5E1F506015C510501F1
:10389800E0190BE106015D510501E119D8B457EFB4
:1038A8001CF059EF1CF02DEF1DF0000EBB6FA00EA1
:1038B800BC6FFE0EBD6FE0C5BEF5E1C5BFF5030EDA
:1038C800A1EC2BF0E0C55CF6E1C55DF6E7EC41F054
:1038D8002DEF1DF0040EF019D8A475EF1CF077EF4A
:1038E8001CF084EF1CF060EC49F00BC568F60CC5C1
:1038F80069F6060E0601866F61EC37F02DEF1DF0B4
:1039080060EC49F00BC5E2F50CC5E3F506015C5126
:103918000501E2190BE106015D510501E319D8B46F
:1039280098EF1CF09AEF1CF02DEF1DF0000EBB6F06
:10393800A00EBC6FFE0EBD6FE2C5BEF5E3C5BFF5B8
:10394800030EA1EC2BF0E2C55CF6E3C55DF6E7ECEF
:1039580041F02DEF1DF0040EF019D8A4B6EF1CF0BD
:10396800B8EF1CF02DEF1DF070C607F571C608F50D
:10397800A7EC4BF00501FF511FEC4BF06EC607F5A5
:103988006FC608F5C0EC4BF06CC607F56DC608F5B8
:10399800C5EC4BF0F4EC2FF06AC607F56BC608F5DA
:1039A800ACEC4BF068C607F569C608F5B1EC4BF00E
:1039B80075EC25F0CA0E0501E46FFFC5E5F570C684
:1039C800E6F571C6E7F56EC6E8F56FC6E9F56CC6AB
:1039D800EAF56DC6EBF56AC6ECF56BC6EDF568C69B
:1039E800EEF569C6EFF5E40E0F6E050E106E64EC89
:1039F80042F0030E14EC40F02DEF1DF00601865145
:103A08000501DA6FDB6BDB51000AD8B40EEF1DF04D
:103A18002DEF1DF0DA51000AD8B40DEF1AF0010AA3
:103A2800D8B4B9EF1AF0030AD8B427EF1BF0010A8B
:103A3800D8B4AFEF1BF0070AD8B42DEF1CF0010A79
:103A4800D8B46EEF1CF0030AD8B4AFEF1CF02DEF1A
:103A58001DF012000A50800B136E0A500A24156ECE
:103A680009AE39EF1DF03BEF1DF03CEF1DF015805E
:103A78001550D8B442EF1DF044EF1DF058EF1DF07B
:103A88001528D8A44AEF1DF04CEF1DF054EF1DF097
:103A9800000E076E000E086E000E096E000E0A6E0C
:103AA800098E0A6A60EF1DF0000E076E000E086EA0
:103AB800000E096E000E0A6E0E50800B146E135025
:103AC8001418D8B46AEF1DF06CEF1DF06DEF1DF0FF
:103AD800138C0E500E24146E0DAE75EF1DF077EF9B
:103AE8001DF078EF1DF014801450D8B47EEF1DF04F
:103AF80080EF1DF094EF1DF01428D8A486EF1DF078
:103B080088EF1DF090EF1DF0000E0B6E000E0C6E8E
:103B1800000E0D6E000E0E6E0D8E0E6A9CEF1DF0DF
:103B2800000E0B6E000E0C6E000E0D6E000E0E6E6B
:103B38001550145CD8B0A3EF1DF0A5EF1DF0CCEF25
:103B48001DF013ACAAEF1DF0ACEF1DF0AEEF1DF0A9
:103B5800800E131A15C516F514C515F516C514F5F6
:103B680007C516F50BC507F516C50BF508C516F5F7
:103B78000CC508F516C50CF509C516F50DC509F5EA
:103B880016C50DF50AC516F50EC50AF516C50EF5C6
:103B9800166A155014C50FF5106A0F5E000E105AFC
:103BA80010BEE0EF1DF0105009E11A0E0F5CD8A00E
:103BB800E0EF1DF0E2EF1DF019EF1EF007500810BE
:103BC80009100A10D8A4EBEF1DF0EEEF1DF0010E5E
:103BD800EFEF1DF0000E166E000E076E000E086E59
:103BE800000E096E000E0A6E14C515F522EF1EF0C0
:103BF80016A001EF1EF003EF1EF009EF1EF0D8909B
:103C080016300109166E0BEF1EF0D890163207A079
:103C180010EF1EF012EF1EF013EF1EF0168E0A348E
:103C28000A32093208320732152A1450155CD8A016
:103C380020EF1EF022EF1EF0FCEF1DF013BC27EF63
:103C48001EF029EF1EF069EF1EF01550D8A42FEFD3
:103C58001EF031EF1EF03BEF1EF0000E076E000E57
:103C6800086E000E096E000E0A6E88EF1FF00B50EA
:103C780007260C5008220D5009220E500A220AA0CD
:103C880048EF1EF04AEF1EF0F6EF1EF016A04FEFB9
:103C98001EF051EF1EF057EF1EF0D89016300109B4
:103CA800166E59EF1EF0D890163207A05EEF1EF080
:103CB80060EF1EF061EF1EF0168E0A340A320932E8
:103CC80008320732152AF6EF1EF00B50075C0C502D
:103CD80008580D5009580A50800A0F6E0E50800A75
:103CE8000F58D8B07AEF1EF07CEF1EF0A7EF1EF049
:103CF80007500B5C0F6E08500C58106E09500D5889
:103D0800116E0A500E58126EFF0E0F24076EFF0E2A
:103D18001020086EFF0E1120096EFF0E12200A6E89
:103D2800800E131A166C1650D8A49DEF1EF09FEF44
:103D38001EF0AFEF1EF0010E0726000E0822092222
:103D48000A22AFEF1EF00B50075E0C50085A0D50B8
:103D5800095A0E500A5A0750081009100A10D8A418
:103D6800B8EF1EF0BAEF1EF0EFEF1EF01650D8A411
:103D7800C0EF1EF0C2EF1EF0EFEF1EF0000E076E50
:103D8800000E086E000E096E000E0A6E88EF1FF016
:103D9800D8900736083609360A3616AED6EF1EF022
:103DA800D8EF1EF0D9EF1EF0078016A0DEEF1EF048
:103DB800E0EF1EF0E4EF1EF0D8801636E6EF1EF0B6
:103DC800D89016361550D8B4ECEF1EF0EEEF1EF072
:103DD800EFEF1EF0150609AEF4EF1EF0F6EF1EF039
:103DE800CCEF1EF0146A16AEFCEF1EF0FEEF1EF0CC
:103DF80016EF1FF016C50FF57F0E0F16D8B407EF94
:103E08001FF009EF1FF00DEF1FF0010E146E16EFF3
:103E18001FF007A012EF1FF014EF1FF016EF1FF0AE
:103E280009EF1FF01450D8B41CEF1FF01EEF1FF05D
:103E380049EF1FF0010E0726000E082209220A2268
:103E48000AA029EF1FF02BEF1FF049EF1FF007C55D
:103E58000FF508C510F509C511F50AC512F5123494
:103E68001232113210320F320FC507F510C508F59E
:103E780011C509F512C50AF51528D8B446EF1FF083
:103E880048EF1FF049EF1FF0152A1528D8B44FEF57
:103E98001FF051EF1FF059EF1FF01550D8A457EF3E
:103EA8001FF059EF1FF06AEF1FF0000E076E000EAB
:103EB800086E000E096E000E0A6E1550D8A467EF42
:103EC8001FF069EF1FF06AEF1FF0136A15A06FEF7C
:103ED8001FF071EF1FF074EF1FF0098E75EF1FF0E0
:103EE800099ED89015300A6E13AE7DEF1FF07FEF54
:103EF8001FF080EF1FF00A8E07C507F508C508F503
:103F080009C509F50AC50AF512000A50800B136E97
:103F18000A500A24196E09AE94EF1FF096EF1FF0AD
:103F280097EF1FF019801950D8B49DEF1FF09FEF3D
:103F38001FF0B2EF1FF01928D8A4A5EF1FF0A7EFC4
:103F48001FF0AFEF1FF0000E076E000E086E000E98
:103F5800096E000E0A6E098EBAEF1FF0000E076E8A
:103F6800000E086E000E096E000E0A6E0E50800BD1
:103F7800131A0E500E24186E0DAEC5EF1FF0C7EFC2
:103F88001FF0C8EF1FF018801850D8B4CEEF1FF0FC
:103F9800D0EF1FF0E3EF1FF01828D8A4D6EF1FF0DA
:103FA800D8EF1FF0E0EF1FF0000E0B6E000E0C6E46
:103FB800000E0D6E000E0E6E0D8EEBEF1FF0000E54
:103FC8000B6E000E0C6E000E0D6E000E0E6E18506D
:103FD800D8B4F1EF1FF0F3EF1FF0FBEF1FF019500B
:103FE800D8A4F9EF1FF0FBEF1FF005EF20F0000E4B
:103FF800076E000E086E000E096E000E0A6E9BEF2B
:1040080021F00D500702F3C41EF5F4C41FF51E502D
:10401800146E156A166A176A1F501A6E1B6A1C6A94
:104028001D6A0C500802F3C41EF5F4C41FF51E5097
:104038001426000E1522162217221F501A26000ECB
:104048001B221C221D220B500902F3C41EF5F4C4C6
:104058001FF51E501426000E1522162217221F5077
:104068001A26000E1B221C221D2216C517F515C57F
:1040780016F514C515F5146A0B500802F3C41EF59D
:10408800F4C41FF51E5014261F501522000E1622C8
:10409800000E17220C500702F3C41EF5F4C41FF5D6
:1040A8001E5014261F501522000E1622000E17222D
:1040B80016C517F515C516F514C515F5146A0B5070
:1040C8000702F3C41EF5F4C41FF51E5014261F5032
:1040D8001522000E1622000E17220D500802F3C4F6
:1040E8001EF5F4C41FF51E501A261F501B22000E81
:1040F8001C22000E1D220C500902F3C41EF5F4C444
:104108001FF51E501A261F501B22000E1C22000EDF
:104118001D220D500902F3C41EF5F4C41FF51E50EC
:104128000F6E1F50106E116A126A11C512F510C574
:1041380011F50FC510F50F6A0F501A2610501B22E3
:1041480011501C2212501D2214C50FF515C510F56B
:1041580016C511F517C512F5190EB8EF20F0D8904D
:104168001232113210320F32E82EB3EF20F00F5016
:104178001A2610501B2211501C2212501D2216C53F
:1041880017F515C516F514C515F5146A185019C58F
:104198000FF5106A0F26000E1022820E0F241E6ED5
:1041A800FF0E10201F6EEEEF20F0D8901A361B3647
:1041B8001C361D3617AEE3EF20F0E5EF20F0E6EFF2
:1041C80020F01A80D89014361536163617361E0683
:1041D800D8A01F061CAEF3EF20F0F5EF20F0D9EFC2
:1041E80020F0186A17AEFBEF20F0FDEF20F021EF6A
:1041F80021F0FF0E14140F6EFF0E1514106EFF0E33
:104208001614116E7F0E1714126E0F501010111025
:104218001210D8B412EF21F014EF21F018EF21F0AA
:10422800010E186E21EF21F01AA01DEF21F01FEFEB
:1042380021F021EF21F014EF21F01850D8B427EF26
:1042480021F029EF21F04DEF21F0010E1A26000E82
:104258001B221C221D221DA034EF21F036EF21F075
:104268004DEF21F01AC50FF51BC510F51CC511F54A
:104278001DC512F512341232113210320F320FC529
:104288001AF510C51BF511C51CF512C51DF51E4AFA
:104298001F2A1FBE58EF21F01F5008E11E28D8A082
:1042A80058EF21F05AEF21F064EF21F0000E1A6E5A
:1042B800000E1B6E800E1C6E7F0E1D6E91EF21F09E
:1042C8001FBE71EF21F01F5006E11E04D8B06FEF3A
:1042D80021F071EF21F07CEF21F0000E1A6E000E34
:1042E8001B6E000E1C6E000E1D6E136A91EF21F0FE
:1042F8001EC519F5FF0E1A16FF0E1B167F0E1C168B
:10430800000E1D1619A08BEF21F08DEF21F08EEF16
:1043180021F01C8ED89019301D6E13501D121AC52D
:1043280007F51BC508F51CC509F51DC50AF51200DA
:10433800F2EC36F00501E66F030EE619D8A4A7EFF4
:1043480021F0A9EF21F0AEEF21F0030E14EC40F0BC
:10435800ADEF23F034EC49F00BC5F1F50CC5F2F5DF
:10436800F1C513F5F2C514F5D2EC46F013C5EDF519
:1043780014C5EEF515C5EFF516C5F0F5F1C513F53D
:10438800F2C514F5F0EC46F013C5F7F514C5F8F5C9
:1043980015C5F9F516C5FAF506018851D8A4D7EF61
:1043A80021F0D9EF21F008EF22F00501FABFECEF78
:1043B80021F0FA510BE1CC0EF75DCC0EF859030E43
:1043C800F959D8B0EAEF21F0ECEF21F0F0EF21F045
:1043D800010EFB6F35EF22F0FABFFFEF21F0FA5123
:1043E8000CE1F705800EF859140EF959D8A0FFEF23
:1043F80021F001EF22F005EF22F0020EFB6F35EFFE
:1044080022F0FB6B35EF22F08805D8A40EEF22F0DE
:1044180010EF22F024EF22F00501FABF20EF22F07E
:10442800FA510CE1F705000EF859040EF959D8A015
:1044380020EF22F022EF22F0ECEF21F005EF22F03E
:104448000501FABF33EF22F0FA5107E1140EF95DC6
:10445800D8B031EF22F033EF22F001EF22F005EF70
:1044680022F0FB05D8A43BEF22F03DEF22F051EFFC
:1044780022F0990EF36F990EF46F030EF56F000E8C
:10448800F66F990E136E990E146E030E156E000ECC
:10449800166E60EC3EF086EF22F0020EFB19D8A4EF
:1044A80058EF22F05AEF22F06EEF22F0000EF36F71
:1044B800000EF46F150EF56F000EF66F000E136EFA
:1044C800000E146E150E156E000E166E60EC3EF0A2
:1044D80086EF22F0F7C5F3F5F8C5F4F5F9C5F5F55B
:1044E800FAC5F6F5F1C513F5F2C514F59EEC40F0E2
:1044F80013C5E4F514C5E5F5E4C50DF5E5C50EF5F8
:10450800BCEC45F00D0E0501DA6F2AC6DBF52BC6AB
:10451800DCF52CC6DDF52DC6DEF5DA6796EF22F060
:104528009EEF22F0DE35DE33DD33DC33DB33DA2F8A
:1045380091EF22F00D0E0501DF6FEDC5E0F5EEC538
:10454800E1F5EFC5E2F5F0C5E3F5DF67AEEF22F080
:10455800B6EF22F0E335E333E233E133E033DF2F24
:10456800A9EF22F00501DB51E0190FE1DC51E11957
:104578000CE1DD51E21909E1DE51E319D8B4C7EFC6
:1045880022F0C9EF22F0F4EF22F0EDC513F5EEC5E5
:1045980014F5EFC515F5F0C516F5E90E176E050EFD
:1045A800186EE70E196E050E1A6E10EC34F0000E38
:1045B8000501BB6FCE0EBC6FFD0EBD6FE9C5BEF524
:1045C800EAC5BFF5E7C5C0F5C16B020EA1EC2BF03B
:1045D800EDC52AF6EEC52BF6EFC52CF6F0C52DF67F
:1045E8000D0E0501DA6F26C6DBF527C6DCF528C6F1
:1045F800DDF529C6DEF5DA6704EF23F00CEF23F0CA
:10460800DE35DE33DD33DC33DB33DA2FFFEF22F048
:104618000D0E0501DF6FF3C5E0F5F4C5E1F5F5C54D
:10462800E2F5F6C5E3F5DF671CEF23F024EF23F08E
:10463800E335E333E233E133E033DF2F17EF23F0E1
:104648000501DB51E0190FE1DC51E1190CE1DD5105
:10465800E21909E1DE51E319D8B435EF23F037EF59
:1046680023F062EF23F0F3C513F5F4C514F5F5C58F
:1046780015F5F6C516F5EB0E176E050E186EE80E55
:10468800196E050E1A6E10EC34F0000E0501BB6FA2
:104698006F0EBC6FFE0EBD6FEBC5BEF5ECC5BFF56A
:1046A800E8C5C0F5C16B040EA1EC2BF0F3C526F6E6
:1046B800F4C527F6F5C528F6F6C529F6060188518A
:1046C8000501FB19D8B46BEF23F06DEF23F0ABEFC6
:1046D80023F090EF23F0000EBB6FB20EBC6FFD0EFF
:1046E800BD6F060EA1EC2BF0A9EF23F0000EBB6FF7
:1046F800A40EBC6FFD0EBD6F060EA1EC2BF0A9EF4A
:1047080023F0000EBB6F960EBC6FFD0EBD6F060E3C
:10471800A1EC2BF0A9EF23F0FB51DA6FDB6BDB5137
:10472800000AD8B49AEF23F0A9EF23F0DA51000A6F
:10473800D8B485EF23F0010AD8B46FEF23F0030A49
:10474800D8B47AEF23F0A9EF23F0FBC588F6E7EC9D
:1047580041F012000A50800B176E0A500A241E6E90
:1047680009AEB9EF23F0BBEF23F0BCEF23F01E80B6
:104778001E50D8B4C2EF23F0C4EF23F0D8EF23F0D3
:104788001E28D8A4CAEF23F0CCEF23F0D4EF23F0EF
:10479800000E076E000E086E000E096E000E0A6EFF
:1047A800098E0A6AE0EF23F0000E076E000E086E0D
:1047B800000E096E000E0A6E0E50800B171A0E506E
:1047C8000E241F6E0DAEEBEF23F0EDEF23F0EEEFAE
:1047D80023F01F801F50D8B4F4EF23F0F6EF23F036
:1047E8000AEF24F01F28D8A4FCEF23F0FEEF23F0F3
:1047F80006EF24F0000E0B6E000E0C6E000E0D6E10
:10480800000E0E6E0D8E0E6A12EF24F0000E0B6E67
:10481800000E0C6E000E0D6E000E0E6E0B500C107E
:104828000D100E10D8A41BEF24F01DEF24F035EF67
:1048380024F0000E076E000E086E000E096E000EC2
:104848000A6E800E09127F0E0A1217500A1207C547
:1048580007F508C508F509C509F50AC50AF574EF8D
:1048680025F01E50D8A43BEF24F03DEF24F047EF8D
:1048780024F0000E076E000E086E000E096E000E82
:104888000A6E74EF25F01F501EC50FF5106A0F5EF3
:10489800000E105A7F0E0F24186E000E1020196E8D
:1048A80007C513F508C514F509C515F50AC516F5A4
:1048B800000E076E000E086E000E096E000E0A6EDE
:1048C800000E1A6E000E1B6E000E1C6E000E1D6E82
:1048D8001F6AA7EF24F01F50D8B475EF24F077EFC4
:1048E80024F08EEF24F0D890133614361536163689
:1048F800D8900736083609360A361DAE86EF24F0FA
:1049080088EF24F089EF24F00780D8901A361B36F8
:104918001C361D360B50135C0C5014580D5015588E
:104928000E501658D8A09BEF24F09DEF24F0A6EF68
:1049380024F01D8C0B50135E0C50145A0D50155A50
:104948000E50165A1F2A190E1F64ADEF24F0AFEF50
:1049580024F06FEF24F01350141015101610D8B46B
:10496800B8EF24F0BAEF24F0D2EF24F01A80D2EF97
:1049780024F0D8900736083609360A361DAEC7EF38
:1049880024F0C9EF24F0CAEF24F00780D8901A3633
:104998001B361C361D361806D8A0190609AED7EFE7
:1049A80024F0D9EF24F0BDEF24F01F6A1DAEDFEF2D
:1049B80024F0E1EF24F005EF25F0FF0E1A140F6E36
:1049C800FF0E1B14106EFF0E1C14116E7F0E1D14AB
:1049D800126E0F50101011101210D8B4F6EF24F008
:1049E800F8EF24F0FCEF24F0010E1F6E05EF25F020
:1049F80007A001EF25F003EF25F005EF25F0F8EF0C
:104A080024F01F50D8B40BEF25F00DEF25F031EF4F
:104A180025F0010E0726000E082209220A220AA004
:104A280018EF25F01AEF25F031EF25F007C50FF53F
:104A380008C510F509C511F50AC512F51234123268
:104A4800113210320F320FC507F510C508F511C520
:104A580009F512C50AF5184A192A19BE3CEF25F0BE
:104A6800195008E11828D8A03CEF25F03EEF25F0B2
:104A780049EF25F0000E196E1868000E076E000E3B
:104A8800086E000E096E000E0A6E19BE56EF25F06C
:104A9800195006E11804D8B054EF25F056EF25F068
:104AA80062EF25F0196A000E186E000E076E000EF0
:104AB800086E000E096E000E0A6E176A18C51EF5FC
:104AC8001EA069EF25F06BEF25F06EEF25F0098E3B
:104AD8006FEF25F0099ED8901E300A6E29EF24F05A
:104AE8001200B6EC4BF007C527F508C528F5BBEC56
:104AF8004BF007C521F508C522F52750215C196E32
:104B0800285022581A6E1B6AD8A01B061B501C6E10
:104B180006010A510C5D296E0B510D592A6E2B6A3C
:104B2800D8A02B062B502C6E29502A102B102C1095
:104B3800D8A4A1EF25F0A3EF25F0ABEF25F0010EE7
:104B4800296E000E2A6E000E2B6E000E2C6E000EC3
:104B5800076E000E086E320E096E000E0A6E29C529
:104B68000BF52AC50CF52BC50DF52CC50EF503EC78
:104B780032F007C53AF608C53BF609C53CF60AC542
:104B88003DF60AC607F50BC608F5096A0A6A3AC669
:104B98000BF53BC60CF53CC60DF53DC60EF508EC0D
:104BA80043F0075000080601366F000E0854376FAF
:104BB800000E0954386F000E0A54396F3A513B11F0
:104BC8003C113D11D8B4EBEF25F0EDEF25F02CEFBB
:104BD80026F03651005D076E37510159086E38517D
:104BE8000259096E395103590A6E3AC60BF53BC68C
:104BF8000CF53CC60DF53DC60EF503EC32F007C5C5
:104C08002DF508C52EF509C52FF50AC530F506019D
:104C18003651045D076E37510559086E38510659EB
:104C2800096E395107590A6E3AC60BF53BC60CF5A1
:104C38003CC60DF53DC60EF503EC32F007C523F56D
:104C480008C524F509C525F50AC526F53CEF26F063
:104C5800000E2D6E000E2E6E000E2F6E000E306EA2
:104C6800FF0E236E0F0E246E000E256E000E266EAC
:104C78002D50235C316E2E502458326E2F502558FB
:104C8800336E30502658346E315032103310341091
:104C9800D8A451EF26F053EF26F05BEF26F0010E73
:104CA800316E000E326E000E336E000E346E000E42
:104CB800076E000E086E100E096E000E0A6E31C5E2
:104CC8000BF532C50CF533C50DF534C50EF503ECFF
:104CD80032F007C542F608C543F609C544F60AC5C9
:104CE80045F642C607F543C608F544C609F545C664
:104CF8000AF52DC50BF52EC50CF52FC50DF530C5DC
:104D08000EF508EC43F00750000806013E6F000E50
:104D180008543F6F040E0954406F000E0A54416F47
:104D280019C515F51AC516F51BC517F51CC518F5CF
:104D380016C518F515C517F5166A156A15C51DF5B2
:104D480016C51EF517C51FF518C520F51DC507F5AD
:104D58001EC508F51FC509F520C50AF531C50BF5AF
:104D680032C50CF533C50DF534C50EF503EC32F03C
:104D780007C532F608C533F609C534F60AC535F64F
:104D880032C607F533C608F534C609F535C60AF53F
:104D98002DC50BF52EC50CF52FC50DF530C50EF537
:104DA80008EC43F02750156E2850166E176A186ADB
:104DB80016C518F515C517F5166A156A0750155C56
:104DC80006012E6F085016582F6F09501758306F6C
:104DD8000A501858316F12002ABEF5EF26F0F8EF86
:104DE80026F0010EF9EF26F0000E396E59BEFFEFDE
:104DF80026F001EF27F003EF27F00501FE9359BED7
:104E08000AEF27F008EF27F00FEF27F0366A010EB8
:104E1800356E13EF27F058C535F559C536F558C620
:104E280037F559C638F53950D8A41DEF27F01FEFCC
:104E380027F027EF27F00501FEA525EF27F027EF3C
:104E480027F03EEF27F03706D8A038063950D8A407
:104E580030EF27F032EF27F037EF27F0346A2B0EC8
:104E6800336E3AEF27F0346A2D0E336E33C539F5B9
:104E78004AEF27F0FEA743EF27F045EF27F04AEF68
:104E880027F03706D8A03806200E396E3B6A4F0E39
:104E98003A6E0601DE6BCDEF27F03A06D8A03B0646
:104EA8008F0E3A24D96E060E3B20DA6E23C507F51D
:104EB80024C508F525C509F526C50AF527C50BF546
:104EC80028C50CF529C50DF52AC50EF50A0E0F6E75
:104ED800000E106E000E116E000E126E000E136E94
:104EE800000E146E000E156E000E166EABEC30F050
:104EF80007C52BF508C52CF509C52DF50AC52EF5EE
:104F08000BC52FF50CC530F50DC531F50EC532F5BD
:104F18002BC519F52CC51AF529EC48F01950300F96
:104F2800DF6E3506D8A036063706D8A0380623C562
:104F380007F524C508F525C509F526C50AF527C5C9
:104F48000BF528C50CF529C50DF52AC50EF50A0E71
:104F58000F6E000E106E000E116E000E126E000E17
:104F6800136E000E146E000E156E000E166E31ECE8
:104F78002FF007C523F508C524F509C525F50AC589
:104F880026F50BC527F50CC528F50DC529F50EC561
:104F98002AF53BBED8EF27F03B5008E13A04D8A0E9
:104FA800D8EF27F0DAEF27F00BEF28F02350241082
:104FB800251026102710281029102A10D8A4E7EF4A
:104FC80027F0E9EF27F051EF27F036BEF6EF27F08C
:104FD800365006E13504D8B0F4EF27F0F6EF27F0A5
:104FE80051EF27F038BE01EF28F0385008E13704B8
:104FF800D8A001EF28F003EF28F00BEF28F0050107
:10500800FEB309EF28F00BEF28F051EF27F03950E5
:10501800D8B411EF28F013EF28F01EEF28F03A0665
:10502800D8A03B068F0E3A24D96E060E3B20DA6EC6
:1050380039C5DFF421C517F522C518F58F0E3A24B6
:10504800196E060E3B201A6E37C51BF538C51CF5C0
:10505800B8EC3BF017C521F518C522F51200F2ECA3
:1050680036F00501EA6F4AEF29F0040EEA19D8A4D0
:1050780040EF28F042EF28F05BEF28F01EEC49F0F3
:105088000BC513F50CC514F5D2EC46F013C522F682
:1050980014C523F615C524F616C525F61DEC45F0EE
:1050A800AEEC3EF0010E0601876F65EF29F0030EA6
:1050B800EA19D8A462EF28F064EF28F069EF28F025
:1050C800030E14EC40F065EF29F01EEC49F00BC517
:1050D80013F50CC514F5D2EC46F013C5DCF514C570
:1050E800DDF515C5DEF516C5DFF5DCC513F5DDC53F
:1050F80014F5DEC515F5DFC516F5E60E176E050EB7
:10510800186EE40E196E050E1A6E10EC34F0000ECF
:105118000501BB6F880EBC6FFE0EBD6FE6C5BEF500
:10512800E7C5BFF5E4C5C0F5C16B040EA1EC2BF0D3
:10513800E7EC41F065EF29F0040EEA19D8A4A7EFCF
:1051480028F0A9EF28F0C2EF28F01EEC49F00BC5B3
:1051580013F50CC514F5D2EC46F013C51EF614C5AC
:105168001FF615C520F616C521F61DEC45F091EC85
:1051780034F0020E0601876F65EF29F0030EEA1975
:10518800D8A4C9EF28F0CBEF28F0D0EF28F0030E11
:1051980014EC40F065EF29F01EEC49F00BC513F54F
:1051A8000CC514F5D2EC46F013C5E0F514C5E1F5CD
:1051B80015C5E2F516C5E3F5E0C513F5E1C514F527
:1051C800E2C515F5E3C516F5E80E176E050E186E5F
:1051D800E50E196E050E1A6E10EC34F0000E05017E
:1051E800BB6F880EBC6FFE0EBD6FE8C5BEF5E9C586
:1051F800BFF5E5C5C0F5C16B040EA1EC2BF09CEF23
:1052080028F0040EEA19D8A40CEF29F00EEF29F0C3
:105218003CEF29F0060122511E190FE123511F19F5
:105228000CE12451201909E125512119D8B41FEFA7
:1052380029F021EF29F037EF29F022C607F523C618
:1052480008F524C609F525C60AF5DFEC4AF01EC69E
:1052580007F51FC608F520C609F521C60AF5E8ECCA
:105268004AF075EC25F0030E14EC40F065EF29F0D8
:10527800030EEA19D8A443EF29F045EF29F065EFAA
:1052880029F0030E14EC40F065EF29F00601875170
:105298000501DA6FDB6BDB51000AD8B456EF29F051
:1052A80065EF29F0DA51000AD8B439EF28F0010A7D
:1052B800D8B4A0EF28F0030AD8B405EF29F065EFB9
:1052C80029F0120059BE6BEF29F06DEF29F06FEF4E
:1052D80029F00501FE9359BE76EF29F074EF29F005
:1052E8007BEF29F0376A010E366E7FEF29F058C53B
:1052F80036F559C537F558C638F559C639F5225027
:105308002310241025102610271028102910D8A49F
:1053180090EF29F093EF29F0010E94EF29F0000E99
:105328003A6E0501FEA99BEF29F09DEF29F0A9EF40
:1053380029F03A50D8B4A3EF29F0A5EF29F0A9EF46
:1053480029F0FE0E3826FF0E3922780E2A18D8B416
:10535800B0EF29F0B2EF29F0B7EF29F0346A410E27
:10536800336EBAEF29F0346A610E336E33C535F502
:105378003D6A4F0E3C6E0601DE6B15EF2AF03C06C7
:10538800D8A03D0622500F0B3B6E0A0E3B60CFEFB4
:1053980029F0D1EF29F0D5EF29F0300E3B26D8EFD0
:1053A80029F03550F60F3B268F0E3C24D96E060E99
:1053B8003D20DA6E3BC5DFF43606D8A0370638063E
:1053C800D8A0390622C52BF523C52CF524C52DF503
:1053D80025C52EF526C52FF527C530F528C531F585
:1053E80029C532F5050E02EF2AF0D8903232313253
:1053F80030322F322E322D322C322B32E82EF9EF6A
:1054080029F02BC522F52CC523F52DC524F52EC56D
:1054180025F52FC526F530C527F531C528F532C540
:1054280029F53DBE21EF2AF03D5009E1020E3C5C12
:10543800D8A021EF2AF023EF2AF054EF2AF02250C7
:105448002310241025102610271028102910D8A45E
:1054580030EF2AF032EF2AF0C3EF29F037BE3FEFE2
:105468002AF0375006E13604D8B03DEF2AF03FEF76
:105478002AF0C3EF29F039BE4AEF2AF0395008E183
:105488003804D8A04AEF2AF04CEF2AF054EF2AF05B
:105498000501FEB352EF2AF054EF2AF0C3EF29F0CA
:1054A8000501FEA95AEF2AF05CEF2AF083EF2AF0F3
:1054B8003A50D8B462EF2AF064EF2AF083EF2AF06A
:1054C80058505910D8B46BEF2AF06DEF2AF083EFDB
:1054D8002AF03C06D8A03D068F0E3C24D96E060E55
:1054E8003D20DA6E2AC5DFF43C06D8A03D068F0EB3
:1054F8003C24D96E060E3D20DA6E300EDF6E20C5D4
:1055080017F521C518F58F0E3C24196E060E3D209F
:105518001A6E38C51BF539C51CF5B8EC3BF017C534
:1055280020F518C521F512000EC630F50FC631F565
:1055380010C632F511C633F520C530F521C531F551
:1055480022C532F523C533F5810E246EFF0E256E74
:1055580030C526F531C527F532C528F533C529F5F7
:10556800180EBCEF2AF0D89029322832273226327A
:10557800E82EB7EF2AF0265024242E6E000E2520A0
:105588002F6E2FBED1EF2AF02F5009E1170E2E5C97
:10559800D8A0D1EF2AF0D3EF2AF0DDEF2AF020C50A
:1055A80020F521C521F522C522F523C523F5A0EF55
:1055B8002BF02FBEE2EF2AF0E4EF2AF054EF2BF0A5
:1055C8002EC524F5FF0E256EFF0E266E7F0E276E64
:1055D800000E286E2466F3EF2AF0FBEF2AF0283439
:1055E8002832273226322532242EEEEF2AF025C51E
:1055F8002AF526C52BF527C52CF528C52DF52A50E3
:105608003014246E2B503114256E2C503214266E13
:105618002D503314276E2450251026102710D8A497
:1056280018EF2BF01AEF2BF01CEF2BF0D3EF2AF02A
:1056380030C524F531C525F532C526F533C527F51E
:10564800200E2CEF2BF0D890273226322532243228
:10565800E82E27EF2BF02450251026102710D8B459
:1056680038EF2BF03AEF2BF042EF2BF02A50302690
:105678002B5031222C5032222D5033222A1C246EDA
:105688002B1C256E2C1C266E2D1C276E24503016C4
:1056980025503116265032162750331698EF2BF026
:1056A80030C524F531C525F532C526F533C527F5AE
:1056B800200E64EF2BF0D890273226322532243280
:1056C800E82E5FEF2BF02450251026102710D8A4C1
:1056D80070EF2BF072EF2BF07CEF2BF0000E306E9A
:1056E800000E316E000E326E000E336E98EF2BF006
:1056F800D8903034246E3134256E3234266E3334EB
:10570800276E2450251026102710D8B48EEF2BF0C2
:1057180090EF2BF098EF2BF0000E306E000E316EEC
:10572800800E326EBF0E336E30C520F531C521F5BF
:1057380032C522F533C523F512000501CD6F090ED8
:105748000501CD61AAEF2BF0ACEF2BF092EF2CF016
:105758000C0EBB65B2EF2BF0B4EF2BF0B6EF2BF0CD
:1057680092EF2CF0BE0ECE6F050ECF6FAE0EA16F6E
:10577800070EA26FA46B0E0EA36FBCC5A5F5BDC521
:10578800A6F5CE0EA76F050EA86F88EC32F0A1C55E
:10579800C9F5A2C5CAF50501CABFD7EF2BF0D5EFE9
:1057A8002BF0DAEF2BF0CA6B000EC96FCABFE6EF19
:1057B8002BF0CA5109E10E0EC95DD8A0E6EF2BF017
:1057C800E8EF2BF0EBEF2BF0CA6B0D0EC96FBB5156
:1057D8000D08C76FC751C26FC36BC251C95DCA51AB
:1057E800800AC46FC351800AC459D8A0FEEF2BF0B9
:1057F80000EF2CF005EF2CF0C7C5C5F5C66B09EF17
:105808002CF0C9C5C5F5CAC5C6F5C5C5C8F5CB6B65
:105818003DEF2CF0AE0ECB25D96EDA6A070EDA22F0
:10582800CD510D0D750EF324C26F080EF420C36F11
:10583800BB51C227000EC323CB51C225E16E000E17
:10584800C321E26EDFC4E7F4CD510D0D000EF32441
:10585800C26F080EF420C36FBB51C227000EC323CA
:10586800CB51C225D96E000EC321DA6E8DC6DFF486
:10587800CB2BC851CB5DD8A044EF2CF046EF2CF0D1
:105888000EEF2CF0BB51C825CC6F0C0ECC654FEF3A
:105898002CF051EF2CF053EF2CF07BEF2CF0CD5186
:1058A8000D0D750EF324C26F080EF420C36FCC5192
:1058B800C225D96E000EC321DA6E200EDF6ECD51DF
:1058C8000D0D000EF324C26F080EF420C36FCC51E7
:1058D800C225D96E000EC321DA6EDF6ACC2B0C0EFE
:1058E800CC6579EF2CF07BEF2CF053EF2CF0CDC585
:1058F800C2F5010EC36F000EC46FC22B87EF2CF0E8
:10590800D890C337C437C22F84EF2CF00501C35198
:10591800060176130501C45106017713120059BE1A
:1059280098EF2CF09AEF2CF09CEF2CF00501FE93E9
:1059380059BEA3EF2CF0A1EF2CF0A8EF2CF0336A9E
:10594800010E326EACEF2CF058C532F559C533F55F
:1059580058C634F559C635F5376A4F0E366E060106
:10596800DE6B2DEF2DF03606D8A037068F0E3624C5
:10597800D96E060E3720DA6E22C507F523C508F55D
:1059880024C509F525C50AF526C50BF527C50CF567
:1059980028C50DF529C50EF50A0E0F6E000E106EFE
:1059A800000E116E000E126E000E136E000E146EB5
:1059B800000E156E000E166E35EC38F007C52AF588
:1059C80008C52BF509C52CF50AC52DF50BC52EF50F
:1059D8000CC52FF50DC530F50EC531F52A50300F21
:1059E800DF6E3206D8A033063406D8A0350622C5A5
:1059F80007F523C508F524C509F525C50AF526C503
:105A08000BF527C50CF528C50DF529C50EF50A0EA9
:105A18000F6E000E106E000E116E000E126E000E4C
:105A2800136E000E146E000E156E000E166E7AECD4
:105A380036F007C522F508C523F509C524F50AC5BA
:105A480025F50BC526F50CC527F50DC528F50EC59A
:105A580029F536503710D8B434EF2DF036EF2DF045
:105A680067EF2DF022502310241025102610271040
:105A780028102910D8A443EF2DF045EF2DF0B7EFEB
:105A88002CF033BE52EF2DF0335006E13204D8B07B
:105A980050EF2DF052EF2DF0B7EF2CF035BE5DEF43
:105AA8002DF0355008E13404D8A05DEF2DF05FEFFC
:105AB8002DF067EF2DF00501FEB365EF2DF067EFD0
:105AC8002DF0B7EF2CF020C517F521C518F58F0E6E
:105AD8003624196E060E37201A6E34C51BF535C5E7
